S01D00007073325F4D53535F4D53535F434D335F305F6170702E73726563FD
S315200000000000012099020020090300200B03002094
S315200000100D0300200F030020110300200000000024
S315200000200000000000000000000000001303002074
S3152000003015030020000000001703002019030020EC
S315200000401B0300201D0300201F0300202103002086
S315200000502303002025030020270300202903002056
S315200000602B0300202D030020AD170020D9170020D8
S3152000007029230020552300203703002039030020A0
S315200000803B0300203D0300203F03002041030020C6
S315200000904303002045030020470300204903002096
S315200000A04B030020000000000000000000000000BC
S315200000B00000000000000000000000004D030020AA
S315200000C04F03002051030020530300205503002036
S315200000D057030020510600205B0300205D0300200B
S315200000E035060020610300206303002065030020FD
S315200000F067030020690300206B0300206D030020A6
S315200001006F03002071030020730300207503002075
S3152000011077030020790300207B0300207D03002045
S315200001207F03002081030020830300208503002015
S3152000013087030020890300208B0300208D030020E5
S315200001408F030020910300209303002095030020B5
S3152000015097030020990300209B0300209D03002085
S315200001609F030020A1030020A3030020A503002055
S31520000170A7030020A9030020AB030020AD03002025
S31520000180AF030020B1030020B3030020B5030020F5
S31520000190B7030020B9030020BB030020BD030020C5
S315200001A0BF030020C1030020C3030020C503002095
S315200001B0C7030020C9030020CB030020CD03002065
S315200001C0CF030020D1030020D3030020D503002035
S315200001D0D7030020D9030020DB030020DD03002005
S315200001E0DF030020E1030020E3030020E5030020D5
S315200001F0E7030020E9030020EB030020ED030020A5
S31520000200EF030020F1030020F3030020F503002074
S31520000210F7030020F9030020BD2A0020E52A00204C
S315200002200D2B0020352B00205D2B0020852B002058
S31520000230AD2B0020D52B0020FD2B0020252C0020C7
S315200002404D2C0020752C00209D2C0020C52C002034
S31520000250ED2C0020152D00203D2D0020652D0020A1
S315200002608D2D0020B52D0020DD2D0020052E00200F
S315200002702D2E0020552E00207D2E0020A52E00207C
S31520000280CD2E0020F52E00201D2F0020452F0020EA
S315200002906D2F0020952F0020684880476848002849
S315200002A00BD168486849694A884206D091421CBFEA
S315200002B050F8043B41F8043BF8D165486549664A45
S315200002C0884206D091421CBF50F8043B41F8043BBB
S315200002D0F8D162486249634A914218BF41F8040B3B
S315200002E0FAD100000000000000000000000000001D
S315200002F0DFF874010FF2030E00474FF000004FF0B5
S315200003000001DFF868F1FEE7FEE7FEE7FEE7FEE71D
S31520000310FEE7FEE7FEE7FEE7FEE7FEE7FEE7FEE78F
S31520000320FEE7FEE7FEE7FEE7FEE7FEE7FEE7FEE77F
S31520000330FEE7FEE7FEE7FEE7FEE7FEE7FEE7FEE76F
S31520000340FEE7FEE7FEE7FEE7FEE7FEE7FEE7FEE75F
S31520000350FEE7FEE7FEE7FEE7FEE7FEE7FEE7FEE74F
S31520000360FEE7FEE7FEE7FEE7FEE7FEE7FEE7FEE73F
S31520000370FEE7FEE7FEE7FEE7FEE7FEE7FEE7FEE72F
S31520000380FEE7FEE7FEE7FEE7FEE7FEE7FEE7FEE71F
S31520000390FEE7FEE7FEE7FEE7FEE7FEE7FEE7FEE70F
S315200003A0FEE7FEE7FEE7FEE7FEE7FEE7FEE7FEE7FF
S315200003B0FEE7FEE7FEE7FEE7FEE7FEE7FEE7FEE7EF
S315200003C0FEE7FEE7FEE7FEE7FEE7FEE7FEE7FEE7DF
S315200003D0FEE7FEE7FEE7FEE7FEE7FEE7FEE7FEE7CF
S315200003E0FEE7FEE7FEE7FEE7FEE7FEE7FEE7FEE7BF
S315200003F0FEE7FEE7FEE7FEE7FEE7FEE7FEE7FEE7AF
S31520000400FEE7FEE7FEE7FEE7FEE7FEE7FEE7FEE79E
S31520000410FEE7FEE7FEE7FEE7FEE7FEE7FEE7FEE78E
S31520000420FEE7FEE7FEE7FEE7FEE7FEE7FEE7FEE77E
S31520000430FEE7FEE7FEE7FEE7FEE70000692600206E
S315200004400000000000000020000000207898002016
S315200004507898002078980020F09D00200000000069
S31520000460F09D002008BF0020BD2F0020050700209A
S3152000047049F6F053C2F200031A780AB9012018701F
S31520000480704700BF49F67800C2F2000008B503683D
S315200004902BB140F20003C0F2000303B1984708BD18
S315200004A04FF0000213464FEA430310F0010F18BF26
S315200004B083F0010302F10102082A02D04FEA50001C
S315200004C0F1E71846704700BF10B4B0F1FF3F2AD0BD
S315200004D0012847D14BF2D850C2F2000004684DF2F1
S315200004E0BF40C0F20100844247D8C1F17F01C1EB71
S315200004F0411001EB800140F61100C0F20420A0FB60
S3152000050001C0C0EB010100EB510004EB90144BF24B
S31520000510D851C2F200010C6049F67C01C2F20001FA
S3152000052009680C6029E04BF2D850C2F2000000683E
S3152000053047F2305C604520D9C1EB411C01EB8C01B0
S31520000540A1F57851A1F10301A0EBD1114BF2D854BA
S31520000550C2F20004216049F67C04C2F2000420683D
S3152000056001600AE049F67C01C2F2000108684BF2FC
S31520000570D851C2F2000109680160B2F1FF3F2AD0CA
S31520000580012A49D149F65462C2F20002116843F6A3
S315200005907F02C0F20102914249D8C3F17F0303EBE7
S315200005A0830303EB830340F61102C0F20422A2FB6D
S315200005B00302C2EB030302EB530201EB921149F64D
S315200005C05463C2F20003196049F69003C2F2000395
S315200005D01B6819602BE049F65462C2F200021168CA
S315200005E041F27012C0F20102914220D903EB83033B
S315200005F003EB8303A3F54663A3F10703A1EBD31112
S3152000060049F65463C2F20003196049F69003C2F218
S3152000061000031B6819600AE049F69003C2F2000342
S315200006201A6849F65463C2F200031B68136010BCB3
S31520000630704700BF08B549F68003C2F200031B6865
S315200006404FF000021A604FF0080001F079FF08BD54
S3152000065008B500F03BFC49F64C63C2F200034FF0AC
S3152000066000021A6049F68C03C2F200031B684FF0A1
S3152000067007021A604FF0050001F062FF08BD00BFB7
S3152000068070B50D4614461E46C1B24FF0010001F06A
S3152000069005FF4FF00200E9B201F000FF4FF0030022
S315200006A0E1B201F0FBFE4FF00400F1B201F0F6FEDC
S315200006B049F68403C2F200031B68049A1A6049F6BD
S315200006C08803C2F200031B68059A1A6070BD00BF3A
S315200006D010B5044600F020FC00F00AFC04EB4404AC
S315200006E004EB441448F21F53C5F2EB13A3FB042476
S315200006F04FEA541400F016FCA042FBD300F002FC93
S3152000070010BD00BF2DE9F04F9FB001F041FF49F227
S315200007100840C2F2000001F043FF49F64463C2F2EA
S315200007200003187049F21C40C2F2000001F038FFA5
S315200007304AF22C63C2F20003187049F23040C2F22A
S31520000740000001F02DFF4AF23063C2F20003187058
S3152000075049F24440C2F2000001F022FF4AF231631E
S31520000760C2F20003187049F65863C2F200034FF034
S315200007700001198049F64467C2F200074BF2D455AE
S31520000780C2F200054AF22C68C2F2000849F6466415
S31520000790C2F200044AF2306AC2F2000A4AF22E6617
S315200007A0C2F200064AF23169C2F2000949F6486BE4
S315200007B0C2F2000B49F65C62C2F20002029238785D
S315200007C001F028FF288098F8000001F023FF208000
S315200007D09AF8000001F01EFF308099F8000001F021
S315200007E019FFABF8000049F65863C2F200031A88D5
S315200007F0B5F800C0029921F812C04BF2DC51C2F2C2
S315200008000001B4F800E021F812E04AF23461C2F2A5
S315200008100001B6F800E021F812E04AF60461C2F2BF
S31520000820000121F8120049F6F452C2F200021FFA22
S315200008308CFC1168614411601A8802F1010292B29F
S315200008401A80B2F57A7FBAD34BF2D653C2F200039E
S315200008504FF0C801198049F2F435C2F2000519ACEF
S315200008600FCD0FC42B68236049F2D035C2F20005A4
S3152000087010AC0FCD0FC40FCD0FC42B68236049F6E3
S315200008808C03C2F200031B684FF007061E6049F670
S315200008907C03C2F200031A6842F2F843C0F2010355
S315200008A0136049F69002C2F20002126813604BF2FE
S315200008B0D852C2F20002136049F65462C2F2000214
S315200008C0136000F0F7FA4EF20010C0F2F55000F077
S315200008D007FB00F00BFB4BF6AC50C2F200004FF4C6
S315200008E061414FF0030200F005FC01F083FD4FF05B
S315200008F000004FF0050101F0B3FD4FF001004FF06D
S31520000900050101F0ADFD4FF002004FF0050101F0A9
S31520000910A7FD4FF003004FF0050101F0A1FD4FF0B8
S3152000092004004FF0050101F09BFD4FF005004FF04C
S31520000930420101F095FD4FF008004FF0420101F011
S315200009408FFD4FF0050001F0C9FD4FF0080001F0C2
S31520000950C5FD49F68003C2F200031B684FF0000470
S315200009601C6049F64C63C2F200031C6020464FF01F
S31520000970010101F093FD0094019420462146224670
S315200009802346FFF77DFE4BF6FC55C2F200052846AE
S3152000099000F090FF4FF008030093284621464FF0C1
S315200009A04072334601F0D0F82846214601F05CF922
S315200009B02046214601F072FD49F65863C2F2000333
S315200009C01C8025464BF6FC56C2F200064FF4FA6709
S315200009D0B0461E461EAA02EB8504404654F8141C57
S315200009E001F00EFA44F85C0C3846FFF771FE3588A4
S315200009F005F10105ADB23580042DEBD94FF000008D
S31520000A004FF0010101F04AFD48F2A060C0F201005A
S31520000A10FFF75EFE49F6506AC2F2000A4FF0000860
S31520000A208DF8138049F25843C2F20003029349F627
S31520000A305865C2F200054BF6FC56C2F2000648F293
S31520000A40A06BC0F2010B9DF813E08AF800E04BF68C
S31520000A50AC50C2F2000051464FF0010200F026FDD4
S31520000A609AF80030A3F17003DBB2012B40F2D38158
S31520000A7049F64463C2F20003187801F0CBFD4BF22D
S31520000A80D453C2F2000318804AF22C63C2F2000348
S31520000A90187801F0BFFD49F64663C2F200031880BC
S31520000AA04AF23063C2F20003187801F0B3FD4AF22D
S31520000AB02E63C2F2000318804AF23163C2F20003A9
S31520000AC0187801F0A7FD49F64863C2F200031880A2
S31520000AD04BF2D653C2F200031B88C82B46D14BF2E9
S31520000AE0D453C2F200031B88B3F5FA7F12D349F61A
S31520000AF04663C2F200031B88B3F5FA7F0AD34AF293
S31520000B002E63C2F200031B88B3F5FA7F02D3B0F539
S31520000B10FA7F3BD24FF061038AF800304BF6AC5097
S31520000B20C2F20000514600F059FC4BF2D453C2F2F7
S31520000B300003198849F64663C2F200031A884AF26E
S31520000B402E63C2F200031B8849F64860C2F20000F9
S31520000B5000880090029802F0C3FA4BF2D653C2F2F4
S31520000B6000031A8802F1FF321A800FE03BB14BF2E4
S31520000B70D652C2F2000203F1FF33138006E04BF295
S31520000B80D653C2F200034FF0C801198040464146B1
S31520000B9001F084FCA5F8008044464FF4FA671EAAAB
S31520000BA002EB8404304654F8381C01F029F944F845
S31520000BB05C0C3846FFF78CFD2C8804F10104A4B2A6
S31520000BC02C80082CEBD940464FF0010101F066FC41
S31520000BD05846FFF77DFD089BCE2B7FF434AF0E9849
S31520000BE0FFF75EFC6FEA000000F0FF0003900F980D
S31520000BF0FFF756FC81460C98FFF752FC6FEA00007F
S31520000C0000F0FF070D98FFF74BFC04460B9B05935E
S31520000C10DDF80CE0BEF1900F2DD9B9F1900F0BD96C
S31520000C204EF660230093019340464FF00101424661
S31520000C300B46FFF725FD79E0B9F16D0F0DD843F688
S31520000C408003C0F20103009301934FF00100414657
S31520000C5002464346FFF714FD68E045F69073C0F25E
S31520000C6001030093019340464FF001010A46434693
S31520000C70FFF706FD5AE003996D292DD8B9F1900F9B
S31520000C800BD94EF660230093019340464FF00101A5
S31520000C9042460B46FFF7F4FC48E0B9F16D0F0DD83C
S31520000CA043F68003C0F20103009301934FF0010045
S31520000CB0414602464346FFF7E3FC37E045F690738C
S31520000CC0C0F20103009301934FF0010041464246D2
S31520000CD00346FFF7D5FC29E0B9F1900F0BD94EF664
S31520000CE060230093019340464FF0010142460B4694
S31520000CF0FFF7C6FC1AE0B9F16D0F0DD843F6800355
S31520000D00C0F20103009301934FF0010041460246D1
S31520000D104346FFF7B5FC09E0CDF80080CDF8048006
S31520000D204046414642464346FFF7AAFC902F14D937
S31520000D30902C07D94FF0FF30394602462346FFF75D
S31520000D40C3FB35E06D2C4FF0FF30394694BF0122AE
S31520000D5042462346FFF7B8FB2AE06D2F15D8902C84
S31520000D6008D94FF0010039464FF0FF322346FFF7EE
S31520000D70ABFB1DE06D2C4FF00100394694BF0246B7
S31520000D8042462346FFF7A0FB12E0902C07D94046A7
S31520000D9039464FF0FF322346FFF796FB08E06D2CCD
S31520000DA04046394694BF012242462346FFF78CFB34
S31520000DB0059A4FEA121303F00F030B2B7FF443AE71
S31520000DC049F64C63C2F200031B68002B7FF43BAE4E
S31520000DD049F68003C2F200031B684FF001021A6035
S31520000DE049F68C03C2F200031B684FF00501196017
S31520000DF049F64C63C2F200031A604FF066038AF884
S31520000E0000304BF6AC50C2F20000514600F0E6FA34
S31520000E1000F052F817E64FF000004FF0010101F004
S31520000E203DFB4BF6FC50C2F200004FF0000100F0F3
S31520000E309FFF4FF00004009401942046214622464D
S31520000E402346FFF71DFC2046214622462346FFF770
S31520000E503BFB49F65063C2F200031B78702B1CD172
S31520000E6049F68C05C2F200054FF28006C0F2FA263A
S31520000E702B684FEAC40202F101021A6004F1010450
S31520000E804FEAE4734FEA93731C4404F00304C3EB64
S31520000E9004043046FFF71CFCEAE749F68C03C2F24D
S31520000EA000031B684FF005021A604FF000001FB0C8
S31520000EB0BDE8F08F704700BF40F20023C4F205035F
S31520000EC09A6842F001029A60704700BF40F2002300
S31520000ED0C4F205039A6822F001029A60704700BFA7
S31520000EE040F20023C4F2050318607047704700BF24
S31520000EF040F20033C4F205039A6842F001029A6078
S31520000F00704700BF40F20033C4F205039A6822F00E
S31520000F1001029A60704700BF40F20033C4F2050315
S31520000F201860704740F20433C4F20503186870470E
S31520000F3080B483B000AF78604FF0FF33184607F1D6
S31520000F400C07BD4680BC704780B483B000AF786084
S31520000F50FEE700BF80B483B000AF786039603B689D
S31520000F604FF400525A604FF00003184607F10C0761
S31520000F70BD4680BC704700BF80B483B000AF7860A8
S31520000F804FF00103184607F10C07BD4680BC704799
S31520000F9080B485B000AFF860B9607A604FF0000386
S31520000FA0184607F11407BD4680BC704780B485B04B
S31520000FB000AFF860B9607A604FF00003184607F179
S31520000FC01407BD4680BC704780B584B000AFF8607A
S31520000FD0B9607A603B6049F6F853C2F200031B6899
S31520000FE0002B10D14BF6D450C2F200004FF46141D1
S31520000FF04FF0030200F07EF849F6F853C2F20003E0
S315200010004FF001021A603B684BF6D450C2F2000042
S3152000101079681A4600F070F93B68184607F1100700
S31520001020BD4680BD80B584B000AF786049F6FC53DC
S31520001030C2F200031B68002B08D149F6FC53C2F20A
S3152000104000034BF60872C2F200021A6049F6FC53FE
S31520001050C2F200031B68BB60EFF30883FB6049F60E
S31520001060FC53C2F200031A687B681A44FB689A4252
S315200010700FD94FF000004FF0010149F26842C2F249
S3152000108000024FF01903FFF79FFF4FF00100FFF713
S315200010905BFF49F6FC53C2F200031A687B681A44C8
S315200010A049F6FC53C2F200031A60BB68184607F1E2
S315200010B01007BD4680BD00BF80B483B000AF034695
S315200010C0FB804EF20013CEF20003B7F906204FEA5A
S315200010D05212F98801F01F014FF0010000FA01F1C8
S315200010E002F1600243F8221007F10C07BD4680BCCE
S315200010F0704700BF80B588B000AFF860B96013466E
S31520001100FB714FF00103FB824FF00003BB61FA68CD
S315200011104BF6D453C2F200039A4207D0FA684BF634
S31520001120AC53C2F200039A4200D000BEBB68002B2B
S3152000113000D100BE01F09EFAFA684BF6D453C2F2F3
S3152000114000039A422ED1FB684FF080421A60FB685A
S315200011504FF084425A60FB684FF00A021A8149F622
S315200011609C03C2F200031B68BB6142F20003CEF26D
S31520001170040342F20002CEF20402126B42F0800215
S315200011801A634FF00A00FFF797FF42F20003CEF2F0
S31520001190040342F20002CEF20402126B22F0800215
S315200011A01A6331E0FA6840F20003C4F201031360C7
S315200011B0FA6840F20003C4F220235360FB684FF024
S315200011C00B021A8149F6A003C2F200031B68BB6119
S315200011D042F20003CEF2040342F20002CEF20402EF
S315200011E0126B42F480721A634FF00B00FFF764FF14
S315200011F042F20003CEF2040342F20002CEF20402CF
S31520001200126B22F480721A63FB681B684FF000028F
S315200012101A71BB68002B21D0BA69BB68B2FBF3F305
S31520001220FB61FB6903F00803002B06D0FB694FEA3C
S31520001230131303F10103FB6103E0FB694FEA131368
S31520001240FB61FA694FF6FF739A4200D900BEFA692C
S315200012504FF6FF739A4201D8FB69FB82FB685B68F5
S315200012604FF00102C3F89C21FB681B68FA8A4FEAFB
S31520001270122292B2D2B21A71FB681B68FA8AD2B2D3
S315200012801A70FB685B684FF00002C3F89C21FB686C
S315200012901B68FA791A73FB681B684FF00E021A72E4
S315200012A0FB685B684FF00002C3F81022FB684FF022
S315200012B000021A61FB684FF00002DA60FB684FF00B
S315200012C000025A61FB684FF00002DA61FA6841F2C7
S315200012D0A563C2F200031362FB684FF000029A6115
S315200012E0FB684FF000025A62FB684FF000029A72C8
S315200012F007F12007BD4680BD80B489B000AFF860F5
S31520001300B9607A604FF000033B61FA684BF6D4531C
S31520001310C2F200039A4207D0FA684BF6AC53C2F2E7
S3152000132000039A4200D000BEBB68002B00D100BE4D
S315200013307B68002B00D100BEFA684BF6D453C2F26C
S3152000134000039A4206D0FA684BF6AC53C2F2000369
S315200013509A423DD1BB68002B3AD07B68002B37D010
S31520001360FB681B681B7DFB76FB689A7AFB7E42EA4C
S315200013700303DAB2FB689A72FB7E03F02003002B8C
S3152000138023D04FF01003FB617B680F2B01D87B68BD
S31520001390FB614FF000037B610EE0FB681B68B968B8
S315200013A03A690A4412781A703B6903F101033B61DA
S315200013B07B6903F101037B617A69FB699A42ECD36D
S315200013C07A687B69C3EB02037B607B68002BC7D1FD
S315200013D007F12407BD4680BC704700BF80B487B0A4
S315200013E000AF786039604FF00003BB607A684BF637
S315200013F0D453C2F200039A4207D07A684BF6AC5314
S31520001400C2F200039A4200D000BE3B68002B00D1F6
S3152000141000BE7A684BF6D453C2F200039A4206D035
S315200014207A684BF6AC53C2F200039A4238D13B6835
S31520001430002B35D03A68BB6813441B783B612CE0FF
S315200014407B681B681B7DFB757B689A7AFB7D42EA6D
S315200014500303DAB27B689A72FB7D03F02003002B2C
S31520001460EED04FF00003FB6011E07B681B683A6901
S31520001470D2B21A70FB6803F10103FB60BB6803F16B
S315200014800103BB603A68BB6813441B783B613B6928
S31520001490002B02D0FB680F2BE7D93B69002BCFD15D
S315200014A007F11C07BD4680BC704700BF80B487B0DB
S315200014B000AFF860B9607A604FF000033B614FF0EF
S315200014C00003FB75FA684BF6D453C2F200039A4226
S315200014D007D0FA684BF6AC53C2F200039A4200D00A
S315200014E000BEBB68002B00D100BE7B68002B00D15C
S315200014F000BEFA684BF6D453C2F200039A4206D0D5
S31520001500FA684BF6AC53C2F200039A4234D1BB6858
S31520001510002B31D07B68002B2ED0FB681B681B7DEF
S31520001520FB75FB689A7AFB7D42EA0303DAB2FB6815
S315200015309A7217E0BA683B691344FA6812681278FF
S31520001540D2B21A703B6903F101033B61FB681B6849
S315200015501B7DFB75FB689A7AFB7D42EA0303DAB2B0
S31520001560FB689A72FB7D03F00103DBB2002B03D0EC
S315200015703A697B689A42DDD33B69184607F11C0716
S31520001580BD4680BC704700BF80B584B000AF786090
S315200015907A684BF6D453C2F200039A4207D07A688F
S315200015A04BF6AC53C2F200039A4200D000BE7A68D2
S315200015B04BF6D453C2F200039A4206D07A684BF611
S315200015C0AC53C2F200039A4267D17B681B681B7A30
S315200015D0DBB203F00F03FB73FB7B0C2B54D801A269
S315200015E052F823F0191600208916002035160020FF
S315200015F08916002051160020891600206D1600201D
S3152000160089160020891600208916002089160020B8
S3152000161089160020511600207B685B6A002B00D1BA
S3152000162000BE7B685B6A002B30D07B685B6A78687B
S31520001630984732E07B681B6A002B00D100BE7B688E
S315200016401B6A002B24D07B681B6A7868984724E0A5
S315200016507B68DB69002B00D100BE7B68DB69002B31
S3152000166018D07B68DB697868984716E07B689B69A9
S31520001670002B00D100BE7B689B69002B0CD07B68B9
S315200016809B697868984708E000BE06E000BF04E042
S3152000169000BF02E000BF00E000BF07F11007BD4613
S315200016A080BD00BF80B487B000AF78607A684BF603
S315200016B0D453C2F200039A4207D07A684BF6AC5351
S315200016C0C2F200039A4200D000BE7B68DB68002B82
S315200016D000D100BE7B681B69002B00D100BE7A6852
S315200016E04BF6D453C2F200039A4206D07A684BF6E0
S315200016F0AC53C2F200039A4252D17B68DB68002BBE
S315200017004ED07B681B69002B4AD07B681B681B7DEB
S31520001710FB727B689A7AFB7A42EA0303DAB27B6829
S315200017209A72FB7A03F02003002B29D04FF0100386
S315200017303B617B681A697B685B69C3EB02037B614B
S315200017407B690F2B01D87B693B614FF00003FB605F
S3152000175012E07B681B687A68D1687A6852690A4405
S3152000176012781A707B685B6903F101027B685A6103
S31520001770FB6803F10103FB60FA683B699A42E8D3F0
S315200017807B685A697B681B699A4209D17B684FF04E
S3152000179000021A617B685B684FF00002C3F8842060
S315200017A007F11C07BD4680BC704700BF684620F085
S315200017B007018D4689B500AF4BF6D450C2F2000022
S315200017C0FFF7E2FE4FF00A00FFF776FCBD46BDE8C4
S315200017D089408546704700BF684620F007018D4640
S315200017E089B500AF4BF6AC50C2F20000FFF7CCFE35
S315200017F04FF00B00FFF760FCBD46BDE889408546EB
S31520001800704700BF80B483B000AF0346FB804EF222
S315200018100013CEF20003B7F906204FEA5212F988D8
S3152000182001F01F014FF0010000FA01F143F82210E8
S3152000183007F10C07BD4680BC704700BF80B483B05B
S3152000184000AF0346FB804EF20013CEF20003B7F939
S3152000185006204FEA5212F98801F01F014FF00100CD
S3152000186000FA01F102F1200243F8221007F10C07D9
S31520001870BD4680BC704700BF80B483B000AF03462E
S31520001880FB804EF20013CEF20003B7F906204FEA92
S315200018905212F98801F01F014FF0010000FA01F100
S315200018A002F1600243F8221007F10C07BD4680BC06
S315200018B0704700BF80B584B000AF78607A684BF679
S315200018C08063C2F200039A4207D07A684BF6FC5333
S315200018D0C2F200039A4200D000BE7B689B881BB2EE
S315200018E01846FFF7ABFF78684FF000014FF08402EF
S315200018F001F08CFB7B684FF001025A624FF0000327
S31520001900FB810DE0FB897A6803F106034FEAC303E6
S3152000191013444FF0FF325A60FB8903F10103FB8128
S31520001920FB89072BEED97A684BF68063C2F2000357
S315200019309A4226D17A6841F20003C4F2000313606A
S315200019407B684FF00C029A8042F20003CEF2040329
S3152000195042F20002CEF20402126B42F400721A63C3
S315200019604FF00C00FFF788FF42F20003CEF204038B
S3152000197042F20002CEF20402126B22F400721A63C3
S3152000198025E07A6841F20003C4F2010313607B6804
S315200019904FF00D029A8042F20003CEF2040342F287
S315200019A00002CEF20402126B42F480621A634FF0F8
S315200019B00D00FFF761FF42F20003CEF2040342F26C
S315200019C00002CEF20402126B22F480621A637B6854
S315200019D01B687A681268126822F000421A6007F1C2
S315200019E01007BD4680BD00BF80B58AB000AF7860C5
S315200019F07B681B681B68FB607B681B689B693B6177
S31520001A007B681B685B687B617B681B689B6ABB6124
S31520001A107B681B681B6BFB617B681B685B6B3B628F
S31520001A207B681B68DB697B627A684BF68063C2F24F
S31520001A3000039A422ED17A6841F20003C4F20003D1
S31520001A4013607B684FF00C029A8042F20003CEF2BC
S31520001A50040342F20002CEF20402126B42F4007238
S31520001A601A634FF00C00FFF707FF42F20003CEF295
S31520001A70040342F20002CEF20402126B22F4007238
S31520001A801A637B681B687A681268126822F0004223
S31520001A901A602DE07A6841F20003C4F20103136054
S31520001AA07B684FF00D029A8042F20003CEF20403C7
S31520001AB042F20002CEF20402126B42F480621A63F2
S31520001AC04FF00D00FFF7D8FE42F20003CEF20403DA
S31520001AD042F20002CEF20402126B22F480621A63F2
S31520001AE07B681B687A681268126822F000421A60C6
S31520001AF0FB6823F00103FB607B681B68FA681A60A9
S31520001B007B681B683A699A617B681B687A695A60A8
S31520001B107B681B687A681268126842F001021A60B4
S31520001B207B681B68BA699A627B681B68FA691A63C4
S31520001B307B681B683A6A5A637B681B687A6ADA6133
S31520001B4007F12807BD4680BD80B584B000AFF86098
S31520001B507A600A46FA72FB70FA684BF68063C2F224
S31520001B6000039A4207D0FA684BF6FC53C2F20003F0
S31520001B709A4200D000BEFB7A072B00D900BE3B7EDE
S31520001B80202B00D900BEFB689B881BB21846FFF7A6
S31520001B9055FEFB684FF0000283F88020FB681B6827
S31520001BA0FA681268126822F001021A60FB681B6844
S31520001BB0FA681268126842F002021A60FB681B6813
S31520001BC0FA681268126842F001021A60FB7A072B43
S31520001BD03FD87B68002B0BD07B68B3F1007F07D002
S31520001BE07B68B3F1807F03D07B68B3F1407F0FD150
S31520001BF0FA7A796840F20213C2F2004341EA0303FB
S31520001C00F96802F106024FEAC2020A4453600EE066
S31520001C10FA7A796840F20213C2F2000341EA03031A
S31520001C20F96802F106024FEAC2020A445360FB7ABF
S31520001C30FA6803F106034FEAC30313443A7E1A7285
S31520001C40FB7AFA6803F106034FEAC3031344FA78D2
S31520001C505A72FB689B881BB21846FFF7D3FD07F123
S31520001C601007BD4680BD00BF80B584B000AF786048
S31520001C700B46FB707A684BF68063C2F200039A42E9
S31520001C8007D07A684BF6FC53C2F200039A4200D082
S31520001C9000BE7B681B681B6803F00203002B00D183
S31520001CA000BEFB787A6803F106034FEAC3031344A8
S31520001CB05B68B3F1FF3F00D100BE7B689B881BB2F7
S31520001CC01846FFF7BBFD7B681B689B6803F004037F
S31520001CD0FB60FB68002B02D07868FFF785FE7B68E7
S31520001CE01B687A681268126822F001021A607B6803
S31520001CF01A68FB78796803F106034FEAC3030B449D
S31520001D005B6813607B681A68FB78796803F10603C1
S31520001D104FEAC3030B445B7A93617B681A68FB78AE
S31520001D20796803F106034FEAC3030B441B7A536019
S31520001D307B681B687A681268126842F001021A6092
S31520001D407B681B687A681268D169FA784FF00100BF
S31520001D5000FA02F241EA0202DA617B689B881BB232
S31520001D601846FFF74FFD07F11007BD4680BD00BF9F
S31520001D7080B584B000AF78600B46FB707A684BF66E
S31520001D808063C2F200039A4207D07A684BF6FC536E
S31520001D90C2F200039A4200D000BE7B681B681B6813
S31520001DA003F00203002B00D100BE7B689B881BB288
S31520001DB01846FFF743FD7B681B689B6803F0040306
S31520001DC0FB60FB68002B02D07868FFF70DFE7B686E
S31520001DD01B687A681268D169FA784FF0010000FA18
S31520001DE002F26FEA020201EA0202DA617B689B884C
S31520001DF01BB21846FFF706FD07F11007BD4680BD4A
S31520001E0080B487B000AF786039607A684BF680631B
S31520001E10C2F200039A4207D07A684BF6FC53C2F20C
S31520001E2000039A4200D000BE7B681B681B6803F043
S31520001E300203002B00D100BE7B681A687B681B68F2
S31520001E40196840F2FF03CFF6007301EA030343F457
S31520001E50807313607B681B687A681268D26A42F0C6
S31520001E600C02DA627B681B689B6803F04003FB6008
S31520001E700BE07B681B681B69BB60BB68BB607B682B
S31520001E801B689B6803F04003FB60FB68002BF0D0C7
S31520001E907B681B683A685A617B681B689B6803F0FD
S31520001EA001037B6105E07B681B689B6803F00103E7
S31520001EB07B617B69002BF6D07B681B689B6803F0EF
S31520001EC002033B6105E07B681B689B6803F0020305
S31520001ED03B613B69002BF6D07B681B681B69184663
S31520001EE007F11C07BD4680BC704700BF80B485B093
S31520001EF000AF78604FF00003FB600EE07B681B6844
S31520001F007A6891687A6812690A4412785A617B68FD
S31520001F101B6903F101027B681A617B681B689B6859
S31520001F2003F48073002B05D17B681A697B68DB6814
S31520001F309A42E3D37B681A697B68DB689A421CD392
S31520001F400EE07B681B687A6851697A68D2690A4410
S31520001F5012785A617B68DB6903F101027B68DA61DA
S31520001F607B681B689B6803F48073002B05D17B6814
S31520001F70DA697B689B699A42E3D37B685B6A002BAC
S31520001F801FD07B681A697B68DB689A4219D37B6805
S31520001F90DA697B689B699A4213D308E07B681B68E1
S31520001FA04FF000025A61FB6803F10103FB607B6876
S31520001FB01B689B6803F48073002B02D1FB681F2BE0
S31520001FC0ECD907F11407BD4680BC704780B584B0B4
S31520001FD000AF78607B6893F88030022B15D10CE037
S31520001FE07B681B681B69FB607B685B6F002B04D0DA
S31520001FF07B685B6FFA68104698477B681B689B680E
S3152000200003F04003002BEBD032E07B6893F880305E
S31520002010012B25D117E07B681B681B69FB607B6859
S315200020201A6B7B68DB6A9A4207D27B689A6A7B685E
S315200020301B6B1344FA68D2B21A707B681B6B03F1D0
S3152000204001027B681A637B681B689B6803F0400368
S31520002050002BE0D00CE07B681B681B69FB6000E06E
S3152000206000BF7B681B689B6803F04003002BF2D0FF
S3152000207007F11007BD4680BD80B586B000AF7860F9
S315200020807B681B6803F120033B617A684BF680630B
S31520002090C2F200039A4207D07A684BF6FC53C2F28A
S315200020A000039A4200D000BE3B691B6803F002037E
S315200020B0002B52D07B6893F88030022B15D10CE090
S315200020C07B681B681B69FB607B685B6F002B04D0F9
S315200020D07B685B6FFA68104698477B681B689B682D
S315200020E003F04003002BEBD032E07B6893F880307E
S315200020F0012B25D117E07B681B681B69FB607B6879
S315200021001A6B7B68DB6A9A4207D27B689A6A7B687D
S315200021101B6B1344FA68D2B21A707B681B6B03F1EF
S3152000212001027B681A637B681B689B6803F0400387
S31520002130002BE0D00CE07B681B681B69FB6000E08D
S3152000214000BF7B681B689B6803F04003002BF2D01E
S315200021507B681B684FF00202DA603B691B6803F05C
S315200021600103DBB2002B12D07B6893F88030022B60
S3152000217005D17B681B687A68926F5A6102E078689D
S31520002180FFF7B4FE7B681B684FF00102DA603B69FB
S315200021901B6803F01003002B23D07868FFF716FF87
S315200021A07B681B6A002B0BD07B681B6A7A68916A56
S315200021B07A68126B0846114698477868FFF796FEAC
S315200021C07B684FF001025A627B681B687A68126846
S315200021D0926A22F010029A627B681B684FF0100206
S315200021E0DA603B691B6803F00403002B0FD07B6881
S315200021F01B687A681268D26A42F00402DA6278684A
S31520002200FFF7F2FB7B681B684FF00402DA603B693C
S315200022101B6803F00803002B31D07B681B687A68A3
S315200022201268D26A42F00802DA627B6893F880303C
S31520002230022B13D17B681A687B681B68196840F2E9
S31520002240FF03CFF6007301EA030343F480731360A0
S315200022507B681B687A68926F5A610BE07B6893F8FB
S315200022608030012B06D17B684FF000021A61786816
S31520002270FFF73CFE7B681B684FF00802DA603B697B
S315200022801B6803F02003002B49D07868FFF79EFED9
S315200022907B681B6B7B617B681B6A002B1CD07B6871
S315200022A04FF000025A627B684FF000025A617B6849
S315200022B04FF000029A617B684FF00002DA617B687A
S315200022C01B684FF01002DA607B681B687A68126818
S315200022D0926A42F010029A627B684FF000021A61FD
S315200022E07B681B687A681268D26A42F00C02DA624E
S315200022F07868FFF7FBFD7B684FF000021A637B6866
S31520002300DB6F002B06D07B68DB6F7A68926A1046FB
S31520002310796998477B681B684FF02002DA6007F1DD
S315200023201807BD4680BD00BF684620F007018D46D0
S3152000233089B500AF4BF68060C2F20000FFF79CFE25
S315200023404FF00C00FFF798FABD46BDE88940854658
S31520002350704700BF684620F007018D4689B500AF5B
S315200023604BF6FC50C2F20000FFF786FE4FF00D0040
S31520002370FFF782FABD46BDE889408546704700BF13
S3152000238080B483B000AF0346FB804EF20013CEF23A
S315200023900003B7F906204FEA5212F98801F01F010F
S315200023A04FF0010000FA01F143F8221007F10C0763
S315200023B0BD4680BC704700BF80B483B000AF0346E3
S315200023C0FB804EF20013CEF20003B7F906204FEA47
S315200023D05212F98801F01F014FF0010000FA01F1B5
S315200023E002F1600243F8221007F10C07BD4680BCBB
S315200023F0704700BF80B582B000AF42F20003CEF234
S31520002400040342F20002CEF20402126B42F480422E
S315200024101A634FF000037B600EE07A6849F204539A
S31520002420C2F2000333F812301BB21846FFF7C4FF7E
S315200024307B6803F101037B607B681F2BEDD942F299
S315200024400003CEF2040342F20002CEF20402126B23
S3152000245022F480421A6307F10807BD4680BD00BFFB
S3152000246080B485B000AF03463960FB71FB79FB6011
S31520002470FB681F2B00D900BEFB681F2B08D8FA6803
S3152000248049F28443C2F2000353F822303A681A60B4
S3152000249007F11407BD4680BC704700BF80B485B0E5
S315200024A000AF02460B46FA71BB71FB79FB60FB68F5
S315200024B01F2B00D900BEFB681F2B09D840F2000352
S315200024C0C4F22623FA68B97902F5886243F8221005
S315200024D007F11407BD4680BC704700BF80B584B0A5
S315200024E000AF0346FB71FB79FB60FB681F2B00D90D
S315200024F000BEFB681F2B1ED8FA6849F28443C2F23D
S31520002500000353F822301B68BB60FA6849F2844303
S31520002510C2F2000353F82230BA6842F008021A6069
S31520002520FA6849F20453C2F2000333F812301BB2A0
S315200025301846FFF725FF07F11007BD4680BD00BFEF
S3152000254080B584B000AF0346FB71FB79FB60FB6866
S315200025501F2B00D900BEFB681F2B15D843F20003A2
S31520002560C4F20103FA684FF0010101FA02F2C3F83E
S315200025708020FA6849F20453C2F2000333F812307D
S315200025801BB21846FFF718FF07F11007BD4680BD9E
S3152000259080B500AF00F082FA00F088F980BD00BF58
S315200025A080B584B000AF78604FF00403FB724FF023
S315200025B000033B8125E03A8949F6AC03C2F20003C9
S315200025C04FEA021213441B68002B16D03A8949F6AB
S315200025D0AC03C2F200034FEA021213441B68786868
S315200025E019464FF0100200F0ADFD0346FB60FB6874
S315200025F0002B02D13B89FB7206E03B8903F10103E4
S315200026003B813B89032BD6D9FB7A184607F1100765
S31520002610BD4680BD80B485B000AF0346FB71FA7914
S3152000262049F6AC03C2F200034FEA02121344DB88D8
S31520002630FB8140F20003C4F20203FA8902F5C0626C
S3152000264053F822304FEA1343BB81BB891BB2002BC0
S3152000265002DA4FF00003BB81BB89184607F1140745
S31520002660BD4680BC704700BF80B400AFBD4680BC6D
S31520002670704700BF80B58AB000AF49F24453C2F21A
S315200026800003BC460FCB8CE80F0042F20003CEF2CB
S3152000269004039B6C4FEA930303F003034FEA83037F
S315200026A007F12802134453F8283C3B6142F2000309
S315200026B0CEF204039B6C4FEA131303F003034FEA95
S315200026C0830307F12802134453F8283C7B6142F226
S315200026D00003CEF204039B6C4FEA931303F003032B
S315200026E04FEA830307F12802134453F8283CBB61C1
S315200026F042F20003CEF20403DB6C4FEA132303F00D
S315200027001F033B6242F20003CEF20403DB6C4FEA66
S31520002710533303F001037B623B6A03F10103FB6140
S315200027207B6A002B03D0FB694FEA4303FB6100F071
S3152000273049F8024649F69803C2F200031A6049F6A0
S315200027409803C2F200031A683B69B2FBF3F249F61A
S315200027509C03C2F200031A6049F69803C2F20003F2
S315200027601A687B69B2FBF3F249F6A003C2F20003B2
S315200027701A6049F69803C2F200031A68BB69B2FBD5
S31520002780F3F249F6A403C2F200031A6049F698034D
S31520002790C2F200031A68FB69B2FBF3F249F6A803FA
S315200027A0C2F200031A6049F69803C2F200031A68BF
S315200027B049F69403C2F200031A6007F12807BD46C2
S315200027C080BD00BF80B48BB000AF4FF000037B60AC
S315200027D040F61C03C6F20803BB6040F23023C6F263
S315200027E00803FB60FB681B6823F070433B613A6972
S315200027F041F2CF13C0F2A1539A4208D14EF62C7360
S31520002800C6F201037B617B691B687B603DE0BB6888
S315200028101A6844F24133C4F654439A4235D140F6FD
S315200028204003C6F20803BB61BB691B68FB61FB69F9
S3152000283023F07F43FB61FA6940F20033C0F20103C3
S315200028409A4222D9FA694FF6FF73C0F201039A42DF
S3152000285008D841F22C63C6F208033B623B6A1B6828
S315200028607B6012E0FA694FF6FF73C0F202039A42C8
S3152000287008D841F6AC63C6F208037B627B6A1B6804
S315200028807B6002E04FF000037B607B68002B05D164
S3152000289000BE47F64003C0F27D137B607B68184676
S315200028A007F12C07BD4680BC704700BF80B487B0B7
S315200028B000AF40F20003C4F20203D3F8C830FB6035
S315200028C040F20003C4F202034FF00002C3F8C8200E
S315200028D04FF00003FB7139E0FB794FEA53037B7419
S315200028E040F20002C4F20202797C0B464FEA43030F
S315200028F00B444FEA0313134403F508731B79BB7487
S31520002900FB7903F00103FB74FB7C002B0DD0F979D6
S31520002910BB7C4FEA5313DBB21A4602F0030249F698
S315200029200063C2F200035A540CE0F979BB7C4FEAEB
S315200029305303DBB21A4602F0030249F60063C2F2E1
S3152000294000035A54FB7903F10103FB71FB79092B30
S31520002950C2D94FF00003BB6073E0BA6849F6AC03F6
S31520002960C2F200034FEA021213441B79BB75BA7DEB
S3152000297049F2D453C2F200039B5C3B75BA7D49F2FF
S31520002980A453C2F200039B5C012B07D0022B27D055
S31520002990002B47D14FF00003FB7547E03B7DFF2B13
S315200029A000D100BE40F20002C4F20202397D0B467D
S315200029B04FEA43030B444FEA0313134403F508730A
S315200029C01B7A7B757B7D03F00103DBB2002B03D0E2
S315200029D04FF00003FB7529E04FF00103FB7525E05E
S315200029E03B7DFF2B00D100BE40F20002C4F2020262
S315200029F0397D0B464FEA43030B444FEA0313134436
S31520002A0003F50A731B797B757B7D03F00103DBB22B
S31520002A10002B03D04FF00003FB7507E04FF00203B5
S31520002A20FB7503E000BE4FF00003FB75BA6849F65C
S31520002A300C63C2F20003F97D9954BB6803F10103CC
S31520002A40BB60BB68032B88DD40F20003C4F202039F
S31520002A50FA68C3F8C82007F11C07BD4680BC70473A
S31520002A6080B483B000AF0346FB804EF20013CEF253
S31520002A700003B7F906204FEA5212F98801F01F0128
S31520002A804FF0010000FA01F102F1600243F8221032
S31520002A9007F10C07BD4680BC704700BF80B400AF6D
S31520002AA0BD4680BC704700BF80B483B000AF0346EC
S31520002AB0FB7107F10C07BD4680BC7047684620F0C5
S31520002AC007018D4689B500AF4FF00000FFF7ECFFF8
S31520002AD04FF07600FFF7C4FFBD46BDE88940854626
S31520002AE0704700BF684620F007018D4689B500AFC4
S31520002AF04FF00100FFF7D8FF4FF07700FFF7B0FF48
S31520002B00BD46BDE889408546704700BF684620F02F
S31520002B1007018D4689B500AF4FF00200FFF7C4FFCD
S31520002B204FF07800FFF79CFFBD46BDE889408546FB
S31520002B30704700BF684620F007018D4689B500AF73
S31520002B404FF00300FFF7B0FF4FF07900FFF788FF43
S31520002B50BD46BDE889408546704700BF684620F0DF
S31520002B6007018D4689B500AF4FF00400FFF79CFFA3
S31520002B704FF07A00FFF774FFBD46BDE889408546D1
S31520002B80704700BF684620F007018D4689B500AF23
S31520002B904FF00500FFF788FF4FF07B00FFF760FF3F
S31520002BA0BD46BDE889408546704700BF684620F08F
S31520002BB007018D4689B500AF4FF00600FFF774FF79
S31520002BC04FF07C00FFF74CFFBD46BDE889408546A7
S31520002BD0704700BF684620F007018D4689B500AFD3
S31520002BE04FF00700FFF760FF4FF07D00FFF738FF3B
S31520002BF0BD46BDE889408546704700BF684620F03F
S31520002C0007018D4689B500AF4FF00800FFF74CFF4E
S31520002C104FF07E00FFF724FFBD46BDE8894085467C
S31520002C20704700BF684620F007018D4689B500AF82
S31520002C304FF00900FFF738FF4FF07F00FFF710FF36
S31520002C40BD46BDE889408546704700BF684620F0EE
S31520002C5007018D4689B500AF4FF00A00FFF724FF24
S31520002C604FF08000FFF7FCFEBD46BDE88940854653
S31520002C70704700BF684620F007018D4689B500AF32
S31520002C804FF00B00FFF710FF4FF08100FFF7E8FE33
S31520002C90BD46BDE889408546704700BF684620F09E
S31520002CA007018D4689B500AF4FF00C00FFF7FCFEFB
S31520002CB04FF08200FFF7D4FEBD46BDE88940854629
S31520002CC0704700BF684620F007018D4689B500AFE2
S31520002CD04FF00D00FFF7E8FE4FF08300FFF7C0FE30
S31520002CE0BD46BDE889408546704700BF684620F04E
S31520002CF007018D4689B500AF4FF00E00FFF7D4FED1
S31520002D004FF08400FFF7ACFEBD46BDE889408546FE
S31520002D10704700BF684620F007018D4689B500AF91
S31520002D204FF00F00FFF7C0FE4FF08500FFF798FE2B
S31520002D30BD46BDE889408546704700BF684620F0FD
S31520002D4007018D4689B500AF4FF01000FFF7ACFEA6
S31520002D504FF08600FFF784FEBD46BDE889408546D4
S31520002D60704700BF684620F007018D4689B500AF41
S31520002D704FF01100FFF798FE4FF08700FFF770FE27
S31520002D80BD46BDE889408546704700BF684620F0AD
S31520002D9007018D4689B500AF4FF01200FFF784FE7C
S31520002DA04FF08800FFF75CFEBD46BDE889408546AA
S31520002DB0704700BF684620F007018D4689B500AFF1
S31520002DC04FF01300FFF770FE4FF08900FFF748FE23
S31520002DD0BD46BDE889408546704700BF684620F05D
S31520002DE007018D4689B500AF4FF01400FFF75CFE52
S31520002DF04FF08A00FFF734FEBD46BDE88940854680
S31520002E00704700BF684620F007018D4689B500AFA0
S31520002E104FF01500FFF748FE4FF08B00FFF720FE1E
S31520002E20BD46BDE889408546704700BF684620F00C
S31520002E3007018D4689B500AF4FF01600FFF734FE27
S31520002E404FF08C00FFF70CFEBD46BDE88940854655
S31520002E50704700BF684620F007018D4689B500AF50
S31520002E604FF01700FFF720FE4FF08D00FFF7F8FD1B
S31520002E70BD46BDE889408546704700BF684620F0BC
S31520002E8007018D4689B500AF4FF01800FFF70CFEFD
S31520002E904FF08E00FFF7E4FDBD46BDE8894085462C
S31520002EA0704700BF684620F007018D4689B500AF00
S31520002EB04FF01900FFF7F8FD4FF08F00FFF7D0FD18
S31520002EC0BD46BDE889408546704700BF684620F06C
S31520002ED007018D4689B500AF4FF01A00FFF7E4FDD4
S31520002EE04FF09000FFF7BCFDBD46BDE88940854602
S31520002EF0704700BF684620F007018D4689B500AFB0
S31520002F004FF01B00FFF7D0FD4FF09100FFF7A8FD13
S31520002F10BD46BDE889408546704700BF684620F01B
S31520002F2007018D4689B500AF4FF01C00FFF7BCFDA9
S31520002F304FF09200FFF794FDBD46BDE889408546D7
S31520002F40704700BF684620F007018D4689B500AF5F
S31520002F504FF01D00FFF7A8FD4FF09300FFF780FD0F
S31520002F60BD46BDE889408546704700BF684620F0CB
S31520002F7007018D4689B500AF4FF01E00FFF794FD7F
S31520002F804FF09400FFF76CFDBD46BDE889408546AD
S31520002F90704700BF684620F007018D4689B500AF0F
S31520002FA04FF01F00FFF780FD4FF09500FFF758FD0B
S31520002FB0BD46BDE889408546704700BF70B549F6D5
S31520002FC0680649F66805C2F20006C2F20005761BBD
S31520002FD0B61006D0002455F8243001349847A6426E
S31520002FE0F9D849F6680549F66C06C2F20005C2F220
S31520002FF00006761B06F02CFCB61006D0002455F8E9
S31520003000243001349847A642F9D870BD032AC9B2A4
S3152000301030B407D822B10023C15401339342FBD1E7
S3152000302030BC704700EB020C034601E003F8011C9C
S3152000303003F003041A460133002CF7D14FF0013375
S31520003040C2EB0C0403FB01F31FE042F8403C42F8BC
S315200030503C3C42F8383C42F8343C42F8303C42F89A
S315200030602C3C42F8283C42F8243C42F8203C42F8CA
S315200030701C3C42F8183C42F8143C42F8103C42F8FA
S315200030800C3C42F8083C42F8043C154640323F2CA2
S31520003090A4F14004D9DC2A46C5EB0C0407E042F82B
S315200030A0103C42F80C3C42F8083C42F8043C1546D9
S315200030B010320F2CA4F11004F1DC2A46C5EB0C05C6
S315200030C001E042F8043C14460432032DA5F1040520
S315200030D0F7DC01E004F8011B6445FBD3A0E700BF41
S315200030E00FB449F6EC03C2F2000310B51C6882B097
S315200030F024B1A36913B9204602F0E6FE204605ACAA
S31520003100049A23468168019400F07EF802B0BDE857
S31520003110104004B0704700BF0EB410B5044683B00B
S3152000312018B183690BB902F0CFFE204606AC059A8A
S3152000313023468168019400F067F803B0BDE810408B
S3152000314003B0704730B41346002A43D041EA000248
S3152000315012F0030F25D1032B04460D463DD90268F4
S3152000316009688A4239D1043B34D0A2F1013121EADF
S31520003170020212F0803F0DD02CE022682968A2F1CD
S3152000318001308A4220EA020027D1043B22D010F0E7
S31520003190803F1FD104340435032BEED82046294620
S315200031A0F3B10478013B91F800C064450FD18BB18F
S315200031B084B1013B002202E063B15CB1013B84187B
S315200031C08D180132647895F801C06445F4D0CCEBB3
S315200031D0040000E0002030BC704720462946E0E786
S315200031E0247895F800C0CCEB0400F4E7936810B57A
S315200031F0144613B95360184610BD02F0C9FF0023C8
S315200032006360A36010BD00BF2DE9F04FADF5AE6D34
S3152000321083B00E4615469A46814603F0A9F9006802
S315200032201D90B9F1000F04D0D9F81830002B00F00A
S315200032305A8149F28063C2F200039E4208BFD9F840
S31520003240046010D049F2A063C2F200039E4208BF78
S31520003250D9F8086007D049F2C063C2F200039E4243
S3152000326008BFD9F80C60B6F80CC01FFA8CF313F41B
S31520003270005F09D14CF4005C726EA6F80CC01FFAF0
S315200032808CF322F40052726613F0080F01F00183CA
S315200032903269002A01F0FD8203F01A030A2B00F09E
S315200032A0E080002212921A9200231C920DF59C6453
S315200032B01192043419920DF5A4621B9304320DF574
S315200032C0906328320333189207930023CDF84C4598
S315200032D0CDF85035CDF854352B781A1E18BF01225B
S315200032E0252B0CBF002202F0010232B32F4617F81D
S315200032F0013F1A1E18BF0122252B0CBF002202F007
S315200033000102002AF3D1B7EB050808BF3D4614D0C9
S31520003310C4F80480DDF85035DDF8542501332560E6
S31520003320072B4244CDF85035CDF8542578DC0834A7
S3152000333011983D46404411903B78002B7CD06B1C65
S315200033404FF0FF372B204FF0200C00214FF00002CA
S315200033500F918DF87725CDF82CA06A780A915D1CFF
S31520003360A2F12003582B00F28682DFE813F09802A0
S3152000337084028402A40284028402840284028402D7
S315200033808402AD02BA028402C102CA028402E702A2
S31520003390F002F002F002F002F002F002F002F00277
S315200033A0F00284028402840284028402840284025B
S315200033B084028402840204032603840226038402F0
S315200033C08402840284026A038402840281048402C1
S315200033D084028402840284021404840284022F0458
S315200033E08402840284028402840284028402840287
S315200033F0840284024F0465042603260326037303EE
S315200034006504840284027903840285039603AD034E
S315200034100A048402CC038402F40384028402C000DA
S315200034200DF5A862484631460C32FFF7DFFE58B943
S315200034300DF59C6404347BE7DDF85435002B41F010
S3152000344092810023CDF85035B38913F0400F02D076
S315200034504FF0FF30119011985FB00DF5806DBDE8EB
S31520003460F08FB6F90E30002BFFF61BAF376A2CF023
S31520003470020CD6F828E00DF58E64ADF888C40C341D
S31520003480B6F80EC02A465346484621461FADCDF80B
S315200034909C740027CDF88C54CDF87C544FF480656D
S315200034A0CDF8A4E4ADF88AC4CDF89054CDF8947440
S315200034B0CDF88454FFF7A8FE0028119009DB214699
S315200034C0484602F091FB1199B84218BF4FF0FF31E0
S315200034D01191BDF8883413F0400FBCD0B38943F066
S315200034E04003B381B7E7484602F0EEFCA1E60A980E
S315200034F049F2506CC2F2000C169210F0200FCDF853
S3152000350064C000F06E830B99CB1D23F0070303F1F3
S3152000351008020B92D3E900AB5AEA0B020A9B0CBFB6
S3152000352000220122134240F06B8602234FF0000155
S315200035308DF87715002FA2BFDDF828C02CF0800C5F
S31520003540CDF828C0002F18BF42F00102002A00F053
S315200035501E84012B00F0DE85022B00F0C185189910
S3152000356013914FEADA084FEADB0C48EA4B780AF067
S315200035700700E346C24630305AEA0B0201F8010D35
S31520003580EFD1DDF828C013911CF0010F40F08C8696
S315200035901898401A10909DF87735109A1797BA42C6
S315200035A0B8BF3A460C9213B10C9A01320C920A9B80
S315200035B00A9813F0020315931EBFDDF830C00CF1F4
S315200035C0020CCDF830C010F0840014904DD10F9924
S315200035D00C9A8F1A002F48DD102F49F20C68D8BF9D
S315200035E0C2F2000830DDC2F200080DF5A86B434692
S315200035F04FF0100AA8460BF10C0B1D4602E0103FB7
S31520003600102F1EDDC4F804A0DDF85035DDF8542552
S31520003610013325601032072BCDF8542504F1080418
S31520003620CDF85035EBDD0DF59C64484631465A46BB
S315200036300434FFF7DBFD00287FF406AF103F102F80
S31520003640E0DC2B46454698466760DDF85035C4F8E1
S3152000365000805A1CDDF85435CDF85025DB19072A91
S31520003660CDF8543500F38A8508349DF877359BB11B
S3152000367001236360DDF850350DF5AE620732226016
S31520003680DDF854250133CDF850350132072BCDF81E
S31520003690542500F3B6840834159B9BB1022363603E
S315200036A0DDF850350DF5AE6204322260DDF8542582
S315200036B00133CDF850350232072BCDF8542500F3CF
S315200036C0AF840834DDF850C0BCF1800F00F076835B
S315200036D0179B109A9F1A002F43DD102FDFF88C8B33
S315200036E02EDD43460DF5A86BA8464FF0100A0BF1C8
S315200036F00C0B1D4602E0103F102F1EDDC4F804A05F
S31520003700DDF85035DDF85425013325601032072BBE
S31520003710CDF8542504F10804CDF85035EBDD0DF530
S315200037209C64484631465A460434FFF75FFD00281C
S315200037307FF48AAE103F102FE0DC2B464546984694
S315200037406760DDF85035DDF854250133C4F8008074
S31520003750D219072BCDF85425CDF8503500F34284E5
S315200037600834DDF828C01CF4807F40F09D82109834
S3152000377013996060DDF85035DDF85425013321605A
S315200037801218072BCDF85035D8BF04F10803CDF811
S31520003790542500F39B830A9911F0040F55D00F9AF4
S315200037A0DDF830C0CCEB0207002F4EDD102F49F29A
S315200037B00C68D8BFC2F200082EDDC2F200080DF553
S315200037C0A86A42461024A8460AF10C0A154602E0C9
S315200037D0103F102F1DDD5C60DDF85025DDF85415F7
S315200037E001321D601031072ACDF8541503F1080364
S315200037F0CDF85025ECDD484631465246FFF7F6FC1B
S315200038000DF59C63043300287FF41EAE103F102F65
S31520003810E1DC2A46454690465F60DDF85025C3F830
S315200038200080DDF854350132CDF85025FB18072AE3
S31520003830CDF854350BDD0DF5A862484631460C32DD
S31520003840FFF7D4FC00287FF4FFADDDF8543511983E
S315200038500C9A0F998A42ACBF801840181190002B01
S3152000386040F042830DF59C640023DDF82CA004343F
S31520003870CDF8503530E51692002A3FF4DDAD0DF532
S31520003880A46001234FF0000C04300C938DF82425FE
S315200038908DF877C5139010930021179187E69DF830
S315200038A07735002B40F02B850B992B468DF877C565
S315200038B02A780B9153E50B990A9B43F001030A934F
S315200038C02B462A780B914AE50B990B9A09680F919A
S315200038D0111D0F9B002BC0F280872A782B460B9157
S315200038E03DE50B992B468DF877052A780B9136E521
S315200038F00B990A9B43F004030A932B462A780B91D3
S315200039002DE52B4613F8012B2A2A01F0CD80A2F1B2
S315200039103001092901F237800235002715F8012CDC
S3152000392007EB87072B46013501EB4707A2F130014C
S315200039300929F3D947EAE7771D4611E50B992B4666
S315200039400A9A42F080020A922A780B9107E5A2F1A0
S3152000395030014FF000082B4608EB880813F8012B9E
S3152000396001EB4808A2F130011D460929F3D9CDF80B
S315200039703C801D46F4E40A9B169243F010030A93FA
S31520003980DDF828C01CF0200F00F05D810B98C31DC8
S3152000399023F0070303F108010B91D3E900ABBAF139
S315200039A0000F7BF10002C0F29B845AEA0B034FF012
S315200039B001030CBF00220122BCE50A98169210F0E2
S315200039C0080F00F0ED840B99CB1D23F0070303F1BC
S315200039D008020B92D3F80480D3F800A0CDF86C80AF
S315200039E0CDF848A05046414604F02EF983460028DB
S315200039F000F09985504600220023414605F024F91F
S31520003A00002840F00B859DF8773549F2446149F24C
S31520003A1040621698C2F20001C2F200024FF0030C77
S31520003A204728D8BF114613910A99CDF830C021F006
S31520003A308001CDF840C00A914FF0000CCDF85CC053
S31520003A40B1E50B990A9B43F008030A932B462A7883
S31520003A500B9184E40A9941F040010A910B993CE7C5
S31520003A602A786C2A00F055850B990A9B0B9143F016
S31520003A7010030A932B4672E40A9A12F0200F00F0E4
S31520003A8082840B98119A036810464FEAE0710B9ACC
S31520003A90C3E9000102F1040A1EE416920A9A12F002
S31520003AA0200300F0EF800B9BDA1D002322F0070293
S31520003AB002F1080CCDF82CC0D2E900AB5AEA0B0073
S31520003AC00CBF0022012231E50B987821DDF828C0B1
S31520003AD01691036849F250608DF8751530218DF8DE
S31520003AE074154CF0020C0B991A1E18BF0122C2F253
S31520003AF000009A464FF0000B0431CDF828C01990EB
S31520003B0002230B9112E50B9B16924FF00002181D13
S31520003B108DF877251B680B901393002B00F0C68633
S31520003B20002F1398C0F28F8600213A4603F0A4F89E
S31520003B300346002800F0F58613981B1A1093BB4203
S31520003B4040F3BE851097002127EAE7779DF8773561
S31520003B500C97179127E5DDF828C016921CF0200F48
S31520003B6023D00B980123C21D22F0070202F108017F
S31520003B700B91D2E900AB5AEA0B020CBF00220122BC
S31520003B80D4E40A992B4641F020010A910B992A7810
S31520003B900B91FFF7E4BB0A9B169243F010030A939E
S31520003BA0DDF828C01CF0200FDBD10A9B13F0100F84
S31520003BB000F0D5830B980123021D0B9201680A1E83
S31520003BC018BF01228A464FF0000BAFE40A981692DE
S31520003BD049F22C6210F0200FC2F2000219927FF4F3
S31520003BE092AC0A9B13F0100F40F01A830A9A12F037
S31520003BF0400F00F015830B9B03F1040CCDF82CC06D
S31520003C00B3F800A0D2464FF0000B85E416920DF5CE
S31520003C10A4610B9A4FF0010C4FF000000431CDF84F
S31520003C2030C0136804328DF877050B921391CDF8C6
S31520003C3040C08DF824352FE6DDF828C016921CF0FA
S31520003C40200F7FF4A3AE0A9A12F0100F40F0F182F3
S31520003C500A9A12F0400F00F0EC820B9B03F1040C41
S31520003C60CDF82CC0B3F900A0D2464FEAEA7B96E6FF
S31520003C700A99169241F010010A910A9A12F020032D
S31520003C807FF411AF0A9911F0100200F054830B9AB9
S31520003C9002F1040CCDF82CC011680A1E18BF0122AF
S31520003CA08A464FF0000B41E4169A652A40F3288194
S31520003CB01298002200231B9904F0BCFF002800F074
S31520003CC0BE8101236360DDF8502549F26C63C2F2A0
S31520003CD000032360DDF854350132CDF85025013339
S31520003CE0072ACDF85435D8BF04F1080300F39B8387
S31520003CF0DDF870251A98824204DB0A9911F0010F2B
S31520003D003FF449AD01225A60DDF85025DDF85415FF
S31520003D1001321D980131072ACDF854151860CDF8C7
S31520003D20502500F35F8508331A994F1E002F7FF721
S31520003D3032AD102FDFF8348540F3EA8242460DF586
S31520003D40A86AA84610240AF10C0A154603E0103F7B
S31520003D50102F40F3DA825C60DDF85025DDF854152B
S31520003D6001321D601031072ACDF8541503F10803DE
S31520003D70CDF85025EBDD484631465246FFF736FA58
S31520003D800DF59C6304330028E1D0FFF75DBB7BB9BA
S31520003D900A9911F0010F0BD00DF5A46230230432DD
S31520003DA08DF84B352732012313921093FFF7F3BB7F
S31520003DB01898002110911390FFF7EDBB0F980C99DE
S31520003DC0471A002F7FF784AC102FDFF8A0842EDD52
S31520003DD043460DF5A86BA8464FF0100A0BF10C0BC5
S31520003DE01D4602E0103F102F1EDDC4F804A0DDF8AA
S31520003DF05035DDF85425013325601032072BCDF8D8
S31520003E00542504F10804CDF85035EBDD0DF59C64FE
S31520003E10484631465A460434FFF7E8F900287FF42D
S31520003E2013AB103F102FE0DC2B46454698466760C3
S31520003E30DDF85035C4F800805A1CDDF85435CDF82D
S31520003E405025DB19072ACDF8543500F33A82083479
S31520003E503EE413996360DDF850252160DDF85415A2
S31520003E600132CDF85025CB18072ACDF8543500F36A
S31520003E70498508341D9A0123DDF870756360DDF8E5
S31520003E8050352260DDF854250133CDF85035013206
S31520003E90072BCDF85425D8BF04F1080300F323855A
S31520003EA01398DDF87025C7191A981F60811A596072
S31520003EB0DDF854158A1ADDF850151218CDF8542558
S31520003EC00131CDF85015072940F332820DF5A8624D
S31520003ED0484631460C32FFF789F900287FF4B4AA08
S31520003EE00DF59C63043356E40DF5A8624846314629
S31520003EF00C32FFF77BF900283FF4B4ACFFF7A4BAE5
S31520003F001A9901294CDD01236360DDF85035DDF86F
S31520003F105425013313980132072BCDF85425206000
S31520003F20CDF8503500F3B281083401236360DDF803
S31520003F305035DDF8542501331D990132072BCDF874
S31520003F4054252160CDF8503500F39281083412981B
S31520003F50002200231B9904F06DFE002840F01D81ED
S31520003F601A9B13985A1E6260DDF85035411C216059
S31520003F70DDF854150133CDF850358A18072BCDF8C6
S31520003F80542521DC08341C9B0DF5AC621C9822605C
S31520003F906360DDF85035DDF854250133FFF7F0BBBB
S31520003FA00A9A12F0010FAED1139A01236360DDF84D
S31520003FB050352260DDF854250133CDF850350132D5
S31520003FC0072BCDF85425DDDD0DF5A8624846314690
S31520003FD00C32FFF70BF900287FF436AA0DF59C6406
S31520003FE00434D0E70DF5A862484631460C32FFF777
S31520003FF0FDF800287FF428AA0DF59C640434FFF709
S31520004000B0BB0DF5A862484631460C32FFF7EEF8F4
S3152000401000287FF419AA0DF59C640434FFF73CBBF5
S315200040200DF5A862484631460C32FFF7DFF8002826
S315200040307FF40AAA0DF59C640434FFF743BBDDF830
S315200040407035002B40F3FD811A998B42FFF601AFA4
S31520004050139A6160DDF850352260DDF8542501336E
S31520004060CDF850355218072BCDF85425D8BF04F17A
S31520004070080300F32984DDF870451A98241A002CC9
S3152000408040F3B381102CDFF8E48140F39D81424652
S315200040900DF5A86AA84610270AF10C0A154603E072
S315200040A0103C102C40F38D815F60DDF85025DDF843
S315200040B0541501321D601031072ACDF8541503F12D
S315200040C00803CDF85025EBDD484631465246FFF72A
S315200040D08DF80DF59C6304330028E1D0FFF7B4B9C1
S315200040E0189A1998134613920AF00F024FEA1A11DA
S315200040F041EA0B714FEA1B1C825C8A46E3465AEA68
S315200041000B0C03F8012DEFD118981393C01A1090B9
S31520004110FFF741BA09220023524573EB0B00DDF865
S3152000412060801FD223464446B8461F46504659460D
S315200041300A22002304F0D8FD00235046594602F1F6
S31520004140300C0A2204F801CD04F0CEFD092200230A
S3152000415082468B46524573EB0B03E7D33B464746D5
S31520004160A0461C4608F1FF300AF1300A139008F8E1
S3152000417001AC1899091A1091FFF70DBA0DF5A8622E
S31520004180484631460C32FFF731F800287FF45CA907
S315200041900DF59C640434FFF768BA1A994F1E002F58
S315200041A07FF7F1AE102FDFF8C4804EDD43460DF5C4
S315200041B0A86BA8464FF0100A0BF10C0B1D4602E027
S315200041C0103F102F3EDDC4F804A0DDF85035DDF891
S315200041D05425013325601032072BCDF8542504F1E0
S315200041E00804CDF85035EBDD0DF59C644846314684
S315200041F05A460434FEF7FAFF0028E1D0FFF724B927
S3152000420016983021DDF828C0012202238DF8741576
S315200042104CF0020C8DF87505CDF828C0FFF786B94D
S315200042200B98011D03680B919A464FF0000BFFF780
S3152000423073B90B98011D03680B919A464FEAEA7BE6
S31520004240FFF7ADBB2B46454698466760DDF85035EF
S31520004250DDF854250133C4F80080D219072BCDF898
S315200042605425CDF850357FF78DAEADE61C9600204F
S315200042700DF5A862484631460C32FEF7B7FF0028F6
S315200042807FF4E2A80DF59C64043460E60DF5A8627F
S31520004290484631460C32FEF7A9FF00287FF4D4A801
S315200042A00DF59C64043440E6302800F0EC82139827
S315200042B0302300F8013D18991390091A1091FFF741
S315200042C06AB90DF5A862484631460C32FEF78EFFD4
S315200042D000287FF4B9A80DF59C640434FFF7F8B9DB
S315200042E0DAF1000A6BEB4B0B2D235AEA0B0C8DF8F7
S315200042F077350CBF002201220123FFF71BB90B994A
S315200043002B462A780B91FFF72AB82A46454690462F
S315200043105F60DDF85025DDF854150132C3F80080C2
S31520004320C919072ACDF85415CDF850253FF7CEAD3B
S315200043300833FFF730BA0A9810F0400300F0ED81F9
S315200043400B9913460A1D0B92B1F800A0BAF1000290
S3152000435018BF0122D2464FF0000BFFF7E7B80A9BA1
S3152000436013F0400F00F0CC810B980123011D0B9117
S31520004370B0F800A0BAF1000218BF0122D2464FF0D1
S31520004380000BFFF7D3B80A9B13F0100F00F0A4819F
S315200043900B98119900F1040A03681960FEF79CBF77
S315200043A00B98C31D23F0070303F108010B91D3F8E3
S315200043B00480D3F800A0CDF86C80CDF848A0FFF794
S315200043C011BB2A46454690465C60DDF85025DDF84F
S315200043D054150132C3F800800919072ACDF854155F
S315200043E0CDF8502500F3EA8208330A9911F0010F1F
S315200043F03FF4D1A901225A60DDF85025DDF8541585
S3152000440001321D980131072ACDF854151860CDF8D0
S3152000441050253FF75BAD0833FFF7BDB92D238DF847
S315200044207735FFF7F2BA0DF5A862484631460C32C9
S31520004430FEF7DCFE00287FF407A80DF59C63043305
S3152000444056E401236360DDF8502549F26C63C2F21D
S3152000445000032360DDF854350132CDF850250133B1
S31520004460072ACDF85435D8BF04F1080300F3878115
S31520004470DDF870253AB91A9A2AB9DDF828C01CF059
S31520004480010F3FF488A901225A60DDF85025DDF896
S31520004490541501321D980131072ACDF8541518609C
S315200044A0CDF8502500F379810833DDF870757F4209
S315200044B0002F40F3B381102FDFF8508640F3D281CE
S315200044C042460DF5A86AA84610240AF10C0A15469C
S315200044D003E0103F102F40F3C2815C60DDF85025C9
S315200044E0DDF8541501321D601031072ACDF8541518
S315200044F003F10803CDF85025EBDD484631465246F8
S31520004500FEF774FE0DF59C6304330028E1D0FEF718
S315200045109BBF0B996B1C0A9A42F020020A926A787A
S315200045200B91FEF71CBF5046414603F09FFB002827
S3152000453040F0FF80B7F1FF3F00F0518216986728C0
S3152000454014BF00230123472808BF43F0010313B1FA
S31520004550002F08BF01270DF5AB60434652460A9946
S31520004560C0E90023DDF85C3541F480710A91002B07
S31520004570C0F26482002117911698662814BF002382
S315200045800123462808BF43F001031093002B00F0B7
S31520004590D181BC460323CDF830A00DF5AE61CDF810
S315200045A034804846009302910DF5AC61DDE90C2379
S315200045B00C31CDF804C003910DF5AD61CDF824C0C2
S315200045C0049100F0C5FB169ADDF824C0B2F167030A
S315200045D018BF0123472A0CBF002303F001031390C1
S315200045E033B90A9B13F0010F08BFDDF868B516D062
S315200045F01398109900EB0C0B31B10378302B00F097
S31520004600DA80DDF870359B4450460022002341466F
S3152000461004F010FB002800F0C281CDF868B5169A88
S315200046201398672A14BF00230123472A08BF43F0A3
S315200046300103C0EB0B001A90002B00F08A81DDF8F5
S31520004640701511F1030F109102DB8F4280F28C81DD
S31520004650169A023A16921099169A4B1ECDF8703574
S31520004660002B8DF86025C0F234822B228DF861252F
S31520004670092B00F3B6810DF5AC62303304328DF888
S31520004680633530238DF862350DF5AC631A981A9987
S31520004690D31A18181C930129109040F310821098F1
S315200046A00130109020EAE0710C911798002800F054
S315200046B06E812D2300218DF877351791FEF774BF73
S315200046C0109A4FF0000C9DF8773522EAE272CDF869
S315200046D05CC00C92FEF767BF0A9A12F0400F17BF14
S315200046E00B980B9A119900F1040A11BF036802F185
S315200046F0040A1368119814BF19801860FEF7ECBDE0
S315200047000B9A131D0B93116801230A1E18BF012251
S315200047108A464FF0000BFEF709BF0B98021D0B923D
S3152000472001680A1E18BF01228A464FF0000BFEF7C9
S31520004730FDBE49F24C6249F248631699C2F2000363
S31520004740C2F2000203204729D8BF1A4613920A9ABA
S315200047500C9022F08002CDF85CB00A929DF8773555
S315200047601090FEF720BF0DF5A862484631460C3260
S31520004770FEF73CFD00287EF467AEFEF762BE0DF51F
S31520004780A862484631460C32FEF730FD00287EF4FA
S315200047905BAE0DF59C6304336AE60DF5A8624846C8
S315200047A031460C32FEF722FD00287EF44DAE0DF583
S315200047B09C63043379E65046002200234146CDF817
S315200047C024C004F037FADDF824C000287FF419AF9E
S315200047D0CCF10103CDF8703515E70F9A52420F92AE
S315200047E0FFF787B80DF5A862484631460C32FEF72A
S315200047F0FDFC00287EF428AE0DF59C630433FFF7FC
S3152000480093BA0DF5A862484631460C32FEF7EEFC07
S3152000481000287EF419AE0DF59C6304331A9913987B
S315200048205960DDF85025DDF85415186001321A98C4
S31520004830CDF850250918072ACDF854153FF746AB71
S315200048400833FEF7A8BF0021179103F067FB9DF8F8
S31520004850773520EAE07210900C92FEF7A4BE2A4625
S31520004860454690465F60DDF85025DDF85415013247
S31520004870C3F80080C919072ACDF85415CDF850255C
S31520004880BFDC0833CAE7189A1399511A1091FEF71C
S3152000489082BE4846314600F049F900287EF4D8AD5C
S315200048A0B6F80CC01FFA8CF3FEF7F6BC062F28BF0D
S315200048B0062749F26461C2F2000127EAE7721097DF
S315200048C013910C92FEF7E8BF0DF5A86248463146D3
S315200048D00C32FEF78BFC00287EF4B6AD0DF59C63FA
S315200048E00433FFF7C8BB0DF5A862484631460C32A3
S315200048F0FEF77CFC00287EF4A7AD0DF59C630433FF
S31520004900FFF7CEBA0DF5A862484631460C32FEF7BF
S315200049106DFC00287EF498AD0DF59C640434FFF7F9
S31520004920A9BA109727EAE77717900C979DF877355D
S31520004930FEF739BE1699652914BF002301234529A0
S3152000494008BF43F00103002B46D007F1010C0223D8
S3152000495021E6169B652B76DD169A662A1CBFDDF8A6
S315200049607035109300F083801A9B109883426EDC7A
S315200049700A9911F0010F40F08E8020EAE072672339
S315200049800C92169391E600271D46FEF7E9BC109976
S315200049909DF8773521EAE1710C91FEF704BEDDF82A
S315200049A068359B4598BF9B467FF639AE302203F883
S315200049B0012B9B45CDF86835F9D830E60DF5A86270
S315200049C0484631460C32FEF711FC00287EF43CADF9
S315200049D00DF59C63043308E5BC460233DBE5073757
S315200049E0B9E546F2676C0DF590610331C6F2666C47
S315200049F08CFB0320DA17C2EBA00202EB8200A3EBAA
S31520004A00400013463030092A01F8010DF0DC30331E
S31520004A10481EDAB201F8012C079B83426AD90DF5AC
S31520004A20AC63033301E011F8012B03F8012C1A467D
S31520004A30DDF81CC001338C45F5D825E62D2208F17A
S31520004A400048179298E5DDF87005109003E6109B54
S31520004A501A99002BDABF1098C0F1020301235B18C4
S31520004A606722109323EAE37316920C931DE6DDF872
S31520004A7070050028109031DD1FB90A9911F0010F39
S31520004A800ED0109866211691431CDB19109323EA49
S31520004A90E3720C9209E61098672116910130109066
S31520004AA020EAE0720C9200E60B991A780F6804311E
S31520004AB00B91002FB8BF4FF0FF37FEF750BC0A9A74
S31520004AC012F0010F04BF20EAE0730C933FF4EDAD22
S31520004AD0E5E52D225B428DF86125C9E577B90A9B6C
S31520004AE013F0010F0AD14FF0010CCDF830C0CDF8EC
S31520004AF040C0DAE50DF5AC620232C5E50237662123
S31520004B0027EAE772109716910C92CEE51C960020A4
S31520004B1010B449F6EC04C2F200048C461346014652
S31520004B206246206810BCFEF76FBB00BF70B549F621
S31520004B30EC05C2F2000506460C46286810B18369CA
S31520004B40002B36D049F28063C2F200039C4238D053
S31520004B5049F2A063C2F200039C4241D049F2C063ED
S31520004B60C2F200039C4204BF2B68DC68A28911466E
S31520004B7093B213F0080F184618BF226933D01AB320
S31520004B8013F0010107D063690021A1605B42A36194
S31520004B9042B1002070BD13F0020F08BF6169A16009
S31520004BA0002AF6D1A38913F0800FF2D04FF0FF3000
S31520004BB070BD01F089F949F28063C2F200039C427C
S31520004BC0C6D12B685C68D1E703F42071B1F5007F6C
S31520004BD0D6D03046214601F0FFFCA3892269CFE7D3
S31520004BE02B689C68C2E713F0100FDFD013F0040F78
S31520004BF008BF226917D0616B51B104F14403994271
S31520004C0003D0304601F0E4F9A28990B20023636311
S31520004C1022694FF6DB71C0F20001002300EA010190
S31520004C206360A181226041F00803A3819BB2A6E7BD
S31520004C302DE9F84F03690E69824689469E4200F3A4
S31520004C408380F21C01F1140500F11404013E920048
S31520004C508B18121803F1040859685068013103F0C3
S31520004C608BFA0746002839D000239C461A46E95875
S31520004C70E0581FFA81FE4FEA114B81B20EFB07CE98
S31520004C8051180BFB07FC0CEB1E4C1FFA8EFECEEBCD
S31520004C9001011FFA8CF24FEA1C4CC2EB10421FFA9C
S31520004CA081FE02EB21424EEA0241E1500433121406
S31520004CB059198845DBD2321D0AEB8203596869B936
S31520004CC09C4209D25AF8222012B105E01A681AB974
S31520004CD0043B013E9C42F9D3CAF81060494650462F
S31520004CE002F07EF900282CDB002301379C46EA5887
S31520004CF0E05891B2120C1FFA80F9C2EB1042C1EBB8
S31520004D000901614402EB214289B241EA0241E150A4
S31520004D1004334FEA224C5A199045E8D2321D0AEB49
S31520004D208203596869B99C4209D25AF8222012B1E5
S31520004D3005E01A681AB9043B013E9C42F9D3CAF829
S31520004D4010603846BDE8F88F0020BDE8F88F00BF18
S31520004D502DE9F04F466AA1B00446904699462D9D0E
S31520004D60002E00F02384326882B1616A4FF0010C74
S31520004D70766820460B6856604A6819460CFA02F295
S31520004D809A6002F067FA636A00221A60B9F1000697
S31520004D9038DB00232B6040F20003C7F6F0731A4677
S31520004DA006EA0303934217D00022002340464946D1
S31520004DB0CDE9068903F03EFF002829D02C9801234F
S31520004DC02E990360002900F0D080794B581E2E9A28
S31520004DD0136021B0BDE8F08F2C9842F20F73036068
S31520004DE0B8F1000F00F0958049F27C60C2F2000015
S31520004DF02E990029EDD0C278C31C002AE7D000F1F5
S31520004E000803E4E726F000460123B1462B60C2E7FB
S31520004E102046DDE906231EA900911FA9019102F073
S31520004E206BFAC6F30A558346002D7ED0DDE90601CE
S31520004E30A5F57E751F9F073D21F07F4323F4700360
S31520004E4043F07E51002341F4E001199340F2000320
S31520004E500022C3F6F87303F0D1FA4FA3D3E9002357
S31520004E6003F080FC4EA3D3E9002303F0C9FACDE971
S31520004E700801284603F010FC4BA3D3E9002303F0D6
S31520004E8071FC02460B46DDE9080103F0B9FACDE9CB
S31520004E90080103F001FF002200230646DDE9080190
S31520004EA003F0D2FE40B1304603F0F6FBDDE90823DD
S31520004EB003F0C0FE00B9013E162E5BD901231893DC
S31520004EC0013FB7EB050A42BFCAF1000ACDF83CA064
S31520004ED04FF0000A01D400220F92002EC0F27183F7
S31520004EE0B2440023179615932A9B092B62D8052BCB
S31520004EF040F377862A98002704382A902A998B1E11
S31520004F00032B00F2DD83DFE813F0A503D803D503D6
S31520004F10C40326F07F4626F47006002E7FF464AF85
S31520004F2049F27060C2F2000062E71F9F1E9BFB18C9
S31520004F3003F586639D1C202DDCBFC5F1200008FAF1
S31520004F4000F008DD1E3BC5F1400216FA02F228FAEF
S31520004F5003F342EA030003F08FFBA5F586650122E1
S31520004F60033D1992A1F1F87170E749F26C60C2F223
S31520004F7000002EE749F22873DDE90601C2F200039C
S31520004F8003EBC603D3E9002303F05EFE002840F0BE
S31520004F902083189094E700BF61436F63A787D23FB1
S31520004FA0B3C8608B288AC63FFB799F501344D33FF2
S31520004FB06D96002000234FF0FF301F4601212A93D3
S31520004FC01190169108902B93656A00236B602046FA
S31520004FD0696802F05BF9636A28601B681093002FEA
S31520004FE000F05B81002E40F32A8449F2287306F0F4
S31520004FF00F02C2F20003351103EBC20315F0100FA6
S31520005000D3E90001CDE90C0100F0E78249F600035F
S31520005010DDE90601C2F2000305F00F054FF0030893
S31520005020D3E9082303F0C8FCCDE91201BDB149F646
S315200050300007DDE90C23C2F2000715F0010F104628
S31520005040194607D0D7E9002308F1010803F08AFBA7
S3152000505002460B4608376D10EFD1CDE90C23DDE96A
S315200050600C23DDE9120103F0A7FCCDE90C01189908
S31520005070002900F0DE8040F20003DDE90C01002269
S31520005080C3F6F0734FF0000503F0DEFD08B14FF0D4
S315200050900105089A002AD4BF002505F00105002D38
S315200050A000F0C780119B002B40F3F58040F20003EF
S315200050B00022C4F22403DDE90C0103F053FBCDE901
S315200050C00C0108F10100711E129103F0E5FA024667
S315200050D00B46DDE90C0103F045FB40F200030022FC
S315200050E0C4F21C0303F08CF9DDF844C08046A1F11C
S315200050F05079169B002B00F0AD8349F2287340F2BD
S315200051000001C2F20003002003EBCC03C3F6E071DA
S31520005110CDF80CC053E9022303F04EFC42464B4621
S31520005120109D03F06BF980468946DDE90C0103F0FA
S31520005130B3FD074603F0B0FA02460B46DDE90C0143
S3152000514003F05CF907F13003CDE90C01404605F880
S31520005150013B4946DDE90C2303F094FD002840F08D
S31520005160138240F20001DDE90C230020C3F6F07122
S3152000517003F044F902460B464046494603F082FDB9
S31520005180DDF80CC0002840F0E783BCF1010F40F3A6
S315200051908280CDF868B00127CDF870A01D966646AE
S315200051A0DDE90CAB0C9410E040F200010020C3F6C0
S315200051B0F07103F023F942464B4603F045FD0028E3
S315200051C040F0C783B74280F28B8440F2000340460A
S315200051D049460022C4F22403013503F0C3FA40F203
S315200051E000030022C4F224038046894650465946CD
S315200051F003F0B8FA8B46824603F04EFD044603F0D0
S315200052004BFA303402460B465046594603F0F6F820
S31520005210109A4B46D4554246013782468B4603F0B8
S3152000522013FD52465B460028BED0DDF868B00C9CC4
S31520005230AAE1404603F030FADDE90C2303F092FAA6
S3152000524040F200030022C4F21C0303F0D9F8089AA6
S31520005250A1F150758046A946002A40F0EC8240F222
S315200052600003DDE90C010022C4F2140303F0C6F8A2
S3152000527042462B46CDE90C0103F004FD002840F000
S315200052804A824246DDE90C0105F1004303F0DCFCCD
S31520005290002840F0D581DDE906891E9B6FEA0307C9
S315200052A04FEAD7770E2ECCBF002707F00107002F35
S315200052B000F0B7802B9849F22873C2F200030899B0
S315200052C003EBC603C20F0029CCBF002202F0010265
S315200052D0D3E90001CDE90401002A40F0A08102466D
S315200052E00B464046494603F067FB109D03F0D4FC6D
S315200052F0824603F0D1F9DDE9042303F033FA0246AE
S315200053000B464046494603F079F80AF1300305F882
S31520005310013B089A012A8046894652D040F2000372
S315200053200022C4F2240303F01DFA00220023CDE953
S31520005330060103F07FFC002840F0EB8110984FF027
S315200053400108CDF82CB0A346871C0F96DDF82090D7
S31520005350DDE906450AE003F005FA002200230446AB
S315200053600D4603F067FC002840F0CE81DDE90423DA
S315200053702046294608F1010803F01EFB3E4603F0AD
S315200053808BFC824603F088F9DDE9042303F0EAF971
S3152000539002460B462046294603F030F800220AF141
S315200053A0300C07F801CC0137C14540F20003C4F2A6
S315200053B02403D0D135465C460F9E8046DDF82CB0BE
S315200053C0894642464B464046494603F019F88046F0
S315200053D089464246DDE904014B4603F035FC60B9B7
S315200053E0DDE9040142464B4603F024FC002800F088
S315200053F090811AF0010F00F08C81109900E01D4673
S3152000540015F8012C6B1E392A40F067838B42F6D1A2
S3152000541010993023013631220B70109B1A70129688
S31520005420B2E0169A002A40F0DF80159F0F9D0C925D
S31520005430002DD4BF00230123BAF1000FD4BF0023CF
S3152000544003F001034BB1AA45B4BF53462B460F9830
S31520005450C3EB0A0AED1AC01A0F90159900291CDD14
S31520005460169A002A00F0E982002F12DD0C993A469E
S31520005470204602F06BF95A460C9020460C9902F011
S315200054807DF8594603462046039301F0E3FE039B2D
S315200054909B46159BDA1B40F011830121204602F022
S315200054A007F906901798002805DD06992046179AD1
S315200054B002F04CF906902A99012940F30A81002727
S315200054C0179B002B40F061820123534413F01F03E6
S315200054D040F02A811C230F9A9A44ED18D2180F9275
S315200054E00F9B002B05DD59461A46204601F0E8FFA2
S315200054F08346BAF1000F05DD06995246204601F093
