:0200000460009A
:100000000000012099020000090300000B0300001A
:100010000D0300000F0300001103000000000000AA
:1000200000000000000000000000000013030000BA
:100030001503000000000000170300001903000072
:100040001B0300001D0300001F030000210300002C
:1000500023030000250300002703000029030000FC
:100060002B0300002D03000051110000811100003E
:100070004D1800007D180000370300003903000010
:100080003B0300003D0300003F030000410300006C
:10009000430300004503000047030000490300003C
:1000A0004B03000000000000000000000000000002
:1000B0000000000000000000000000004D030000F0
:1000C0004F030000510300005303000055030000DC
:1000D00057030000010600005B0300005D03000001
:1000E000ED050000610300006303000065030000EC
:1000F00067030000690300006B0300006D0300004C
:100100006F0300007103000073030000750300001B
:1001100077030000790300007B0300007D030000EB
:100120007F030000810300008303000085030000BB
:1001300087030000890300008B0300008D0300008B
:100140008F0300009103000093030000950300005B
:1001500097030000990300009B0300009D0300002B
:100160009F030000A1030000A3030000A5030000FB
:10017000A7030000A9030000AB030000AD030000CB
:10018000AF030000B1030000B3030000B50300009B
:10019000B7030000B9030000BB030000BD0300006B
:1001A000BF030000C1030000C3030000C50300003B
:1001B000C7030000C9030000CB030000CD0300000B
:1001C000CF030000D1030000D3030000D5030000DB
:1001D000D7030000D9030000DB030000DD030000AB
:1001E000DF030000E1030000E3030000E50300007B
:1001F000E7030000E9030000EB030000ED0300004B
:10020000EF030000F1030000F3030000F50300001A
:10021000F7030000F9030000AD1E0000CD1E000032
:10022000ED1E00000D1F00002D1F00004D1F0000DF
:100230006D1F00008D1F0000AD1F0000CD1F0000CE
:10024000ED1F00000D2000002D2000004D200000BB
:100250006D2000008D200000AD200000CD200000AA
:10026000ED2000000D2100002D2100004D21000097
:100270006D2100008D210000AD210000CD21000086
:10028000ED2100000D2200002D2200004D22000073
:100290006D2200008D2200006848804768480028D1
:1002A0000BD168486849694A884206D091421CBF10
:1002B00050F8043B41F8043BF8D165486549664A6B
:1002C000884206D091421CBF50F8043B41F8043BE1
:1002D000F8D162486249634A914218BF41F8040B61
:1002E000FAD1000000000000000000000000000043
:1002F000DFF874010FF2030E00474FF000004FF0DB
:100300000001DFF868F1FEE7FEE7FEE7FEE7FEE743
:10031000FEE7FEE7FEE7FEE7FEE7FEE7FEE7FEE7B5
:10032000FEE7FEE7FEE7FEE7FEE7FEE7FEE7FEE7A5
:10033000FEE7FEE7FEE7FEE7FEE7FEE7FEE7FEE795
:10034000FEE7FEE7FEE7FEE7FEE7FEE7FEE7FEE785
:10035000FEE7FEE7FEE7FEE7FEE7FEE7FEE7FEE775
:10036000FEE7FEE7FEE7FEE7FEE7FEE7FEE7FEE765
:10037000FEE7FEE7FEE7FEE7FEE7FEE7FEE7FEE755
:10038000FEE7FEE7FEE7FEE7FEE7FEE7FEE7FEE745
:10039000FEE7FEE7FEE7FEE7FEE7FEE7FEE7FEE735
:1003A000FEE7FEE7FEE7FEE7FEE7FEE7FEE7FEE725
:1003B000FEE7FEE7FEE7FEE7FEE7FEE7FEE7FEE715
:1003C000FEE7FEE7FEE7FEE7FEE7FEE7FEE7FEE705
:1003D000FEE7FEE7FEE7FEE7FEE7FEE7FEE7FEE7F5
:1003E000FEE7FEE7FEE7FEE7FEE7FEE7FEE7FEE7E5
:1003F000FEE7FEE7FEE7FEE7FEE7FEE7FEE7FEE7D5
:10040000FEE7FEE7FEE7FEE7FEE7FEE7FEE7FEE7C4
:10041000FEE7FEE7FEE7FEE7FEE7FEE7FEE7FEE7B4
:10042000FEE7FEE7FEE7FEE7FEE7FEE7FEE7FEE7A4
:10043000FEE7FEE7FEE7FEE7FEE70000211B000007
:10044000010000007004006070040000A02600009D
:10045000A0260060000000207400002000000000C2
:100460007400002050210020AD220000A9060000E9
:1004700040F27403C2F200031A780AB9012018701E
:10048000704700BF40F20000C2F2000008B50368E8
:100490002BB140F20003C0F2000303B1984708BD3E
:1004A000B0F1FF3F30B41ED0012879D040F20400F3
:1004B00041F62001C2F20000C2F2000100680968A2
:1004C0000160B2F1FF3F2AD0012A44D040F2180166
:1004D00040F29C03C2F20001C2F200030A681868ED
:1004E000106030BC704741F62000C2F20000046882
:1004F00047F2305C6445E4D9C1EB411C01EB8C014F
:1005000040F20405A1F57851C2F2000503392D68C7
:10051000A4EBD111B2F1FF3F01602960D4D140F2C8
:100520009C02C2F2000241F270111068C0F2010197
:100530008842D6D903EB830101EB810C40F218010C
:10054000ACF54663C2F20001073B0968A0EBD3108B
:1005500010600860C5E740F29C02C2F2000243F658
:100560007F0C1068C0F2010C6045BAD8C3F17F045B
:1005700004EB840C40F611010CEB8C03C0F2042157
:10058000A1FB034C40F21801CCEB0304C2F20001C2
:100590000CEB540C0C6800EB9C1313602360A0E779
:1005A00041F62000C2F200004DF2BF4C0468C0F2D8
:1005B000010C644585D8C1F17F01C1EB411540F6BE
:1005C000110C01EB8501C0F2042CACFB015C40F284
:1005D0000405CCEB0101C2F200050CEB510C2D68B7
:1005E00004EB9C1404602C606BE700BF40F2080031
:1005F000C2F200000368002208201A6001F024BA49
:1006000010B500F05FFC40F21402C2F20002106864
:10061000072140F294030160C2F20003002205208A
:100620001A60BDE8104001F00FBA00BF70B5C5B246
:100630000C46012029461E46154601F0D7F9E1B2C5
:10064000022001F0D3F9E9B2032001F0CFF9F1B2B1
:10065000042001F0CBF940F20C0240F21003C2F288
:100660000002C2F2000310681B680499059A016039
:100670001A6070BD10B5044600F04AFC00F034FC6E
:1006800004EB440148F21F5301EB4110C5F2EB1398
:10069000A3FB0024640900F041FCA042FBD3BDE8A9
:1006A000104000F02BBC00BF2DE9F04FA9B001F0C5
:1006B0002FFA42F2B040C0F2000001F0FDF940F222
:1006C0008C01C2F20001087042F2C440C0F2000086
:1006D000039101F0F1F940F67405C2F200052870AB
:1006E00042F2D840C0F20000049501F0E5F940F66E
:1006F0007806C2F20006307042F2EC40C0F2000010
:10070000059601F0D9F940F67904C2F20004069486
:1007100040F2A00541F61C0740F28E0940F6760A29
:1007200040F2900140F67C0641F24C0C069AC2F26F
:100730000005C2F20007C2F20009C2F2000AC2F2CA
:10074000000640F2A40B41F6240840F278044FF072
:100750000003C2F20001C2F2000C0297107057466B
:100760002B80B24607914E46C2F2000BC2F200083F
:10077000C2F200040895E146039B187801F086F95F
:100780000499029D2880087801F080F9059A30804C
:10079000107801F07BF9069B3880187801F076F923
:1007A0000299089DB1F800C022682B880CEB020E5C
:1007B0002BF813C0C4F800E0079DB6F800C0B7F8E6
:1007C00000E0591C89B229F81300288028F813C0CA
:1007D0002AF813E040F2E730089B40F2A002814281
:1007E0001980C2F20002C7D90DF18C0E0DF1680B11
:1007F000B14642F2784C42F29C46D846BA46C0F224
:1008000000067746C0F2000C0B921D460FCE0FC7B4
:10081000BCE80F00A8E80F00BCE80F0044460FC476
:10082000D6F800E00A94C7F800E0DCF800C00A9FA0
:1008300040F2140440F2040240F21803C2F2000233
:10084000C2F20003C2F2000418681668C7F800C0BC
:1008500041F61E08276842F2F84341F6200240F2B2
:100860009C014FF0C80CC0F20103C2F20002C2F2B8
:1008700000014FF0070BC2F20008C7F800B0A8F85B
:1008800000C0336003600B60136000F00FFB4EF29A
:100890000010C0F2F55000F01FFB00F023FB41F602
:1008A000F4700322C2F200004FF4614100F080FCBA
:1008B00001F05AF80020052101F08EF801200521F1
:1008C00001F08AF80220052101F086F803200521B5
:1008D00001F082F80420052101F07EF80520422174
:1008E00001F07AF84221082001F076F840F208037E
:1008F0000520089301F086F808990820C2F200014B
:10090000089101F07FF8089E40F294023068C2F22C
:10091000000200260660012130461660099201F0AF
:1009200065F8314632463346304600960196FFF769
:100930007DFE42F24400C2F2000000F0B7FF42F236
:1009400044005B464FF04072C2F2000031464FF067
:10095000080BCDF800B000F015FD42F24400C2F2E1
:100960000000314600F078FD3046314601F03EF897
:100970000B9F3E8028AB03EB860742F2440057F8FA
:10098000141CC2F2000000F0DDFD47F85C0C4FF4CF
:10099000FA60FFF76FFE2888411C8EB2042E2E806D
:1009A000E8D90121002001F021F848F2A060C0F24E
:1009B0000100FFF75FFE40F28E0740F2980C41F60F
:1009C0001C0240F6760041F61E0140F29406C2F287
:1009D0000007C2F2000CC2F20002C2F20000C2F232
:1009E0000001C2F200060C97CB460B92D1460D9047
:1009F0000A910E966746A24640F298040026C2F27B
:100A0000000441F6F47021460122C2F200003E705B
:100A100000F0C8FA39787039CBB2012B40F2B281BC
:100A2000039C207801F032F8049B02990880187822
:100A300001F02CF8059AABF80000107801F026F8C8
:100A4000069EA9F80000307801F020F8B8F80030D0
:100A5000079CC82B208000F05781002B00F04E81AE
:100A60000A9C5E1E26800020014600F0BFFF4FF06A
:100A70000001298000240DF1A00E0EEB840642F245
:100A8000440056F8381CC2F2000000F05BFD46F846
:100A90005C0C4FF4FA60FFF7EDFD2A88501C84B21D
:100AA000082C2C80E7D90020012100F09FFF48F29C
:100AB000A060C0F20100FFF7DDFD129CCE2C9BD19F
:100AC000189B580803F001014A0010F0010F18BFED
:100AD00082F001024608540016F0010F18BF84F09E
:100AE00001047308610013F0010F18BF81F00101C8
:100AF00058084A0010F0010F18BF82F001024608A2
:100B0000540016F0010F18BF84F00104730861004F
:100B100013F0010F18BF81F00101199E480013F076
:100B2000020F18BF80F0010006F001047108630095
:100B3000C24311F0010F18BF83F0010348085E00A3
:100B400010F0010F18BF86F001064408730014F07E
:100B5000010F18BF83F001036108580011F0010F65
:100B600018BF80F001004E08440016F0010F18BFB6
:100B700084F001047008630010F0010F169918BF8B
:100B800083F001035B0010F0020F18BF83F0010334
:100B900001F001064C08700014F0010F18BF80F03E
:100BA00001006108460011F0010F18BF86F0010630
:100BB0004C08700014F0010F18BF80F001006108AC
:100BC000460011F0010F18BF86F001064C087000B6
:100BD00014F0010F18BF80F001006108460011F009
:100BE000010F18BF86F001067400179811F0020F6C
:100BF00018BF84F00104E643410800F001046000DE
:100C000011F0010F18BF80F001004908440011F0F5
:100C1000010F18BF84F001044808640010F0010FB0
:100C200018BF84F001044108600011F0010F18BFE3
:100C300080F001004908440011F0010F18BF84F052
:100C400001044808640010F0010F18BF84F001048B
:100C5000640002F0FF0210F0020F159918BF84F033
:100C60000104902A06F0FF060F9174D9902B00F230
:100C7000D1806D2B40F2BF800020012145F6907C91
:100C8000C0F2010C0A460346CDF804C0CDF800C0FE
:100C9000FFF7CCFC902E67D9902C00F2DC806D2CF5
:100CA000314623464FF0FF3000F2E5800122FFF786
:100CB000F7FB0F9A160906F00F040B2C7FF49CAE7D
:100CC0000999086800287FF497AE08980123046802
:100CD000DAF8006023600E9C0522236041F6F47070
:100CE000653340F298013260C2F20000C2F20001A6
:100CF0003B7000F019F900F0DBF87DE60A9B4FF03D
:100D0000C80CA3F800C0AEE60B9E40F2F312B6F892
:100D100000E096450BD90C9BB3F800C0944506D96A
:100D20000D990C88944202D990423FF69CAE4FF048
:100D3000610E41F6F47040F29801C2F20000C2F276
:100D4000000187F800E000F0EFF8B8F80020501E2E
:100D5000A8F8000087E66D2A61D8902B5AD86D2B31
:100D600049D90120002189E76D2E69D8902C7AD8C5
:100D70006D2C00F284800120314623460246FFF7A5
:100D80008FFB96E70121304600F030FE42F244002E
:100D9000C2F20000314600F0A1FB30463146324637
:100DA0003346274600960196FFF740FC3046314611
:100DB00032463346FFF774FB97F800C05446BCF147
:100DC000700F06D0226805211160304629B0BDE8B9
:100DD000F08F701CC317F5009F0F2268C619691C9D
:100DE0004FF2800006F003051160C0F2FA20EE1BFE
:100DF000FFF740FCEDE743F6800C01200021C0F234
:100E0000010C02460B46CDF804C0CDF800C0FFF738
:100E10000DFC3FE7002001214EF6602CF1E7902BFE
:100E2000F8D86D2BE7D94FF0000E70467146724628
:100E30007346CDF800E0CDF804E0FFF7F7FB29E7B3
:100E4000902C2AD86D2C21D831462346002001222F
:100E5000FFF726FB2DE74FF0FF30314623460246D1
:100E6000FFF71EFB25E73146234601204FF0FF32F6
:100E7000FFF716FB1DE70022FFF712FB19E73146CB
:100E8000234601200022FFF70BFB12E7002031462A
:100E900023460246FFF704FB0BE7314623460020BA
:100EA0004FF0FF32FFF7FCFA03E700BF704700BFC7
:100EB00040F20023C4F20503986840F001029A60F2
:100EC000704700BF40F20023C4F20503986820F089
:100ED00001029A60704700BF40F20023C4F205038C
:100EE00018607047704700BF40F20033C4F205033A
:100EF000986840F001029A60704700BF40F20033EA
:100F0000C4F20503986820F001029A60704700BFA0
:100F100040F20033C4F205031860704740F2043316
:100F2000C4F205031868704742F21C03C2F20003C2
:100F300098422DE9F00508D041F6F472C2F20002A1
:100F4000904202D0BDE8F00570470029FAD00D7834
:100F5000002DF7D0827A04684FF0000C237D1A43ED
:100F600013F0200FFAD0827225B96346002DE9D024
:100F70009C46F3E7D0F800A0002601EB0C08EDB288
:100F800001368AF8005018F8065006EB0C032F1EA5
:100F900018BF01270F2E8CBF002707F00107002F75
:100FA000E4D0ECE742F21C03C2F20003984270B4B2
:100FB00009D041F6F47CC2F2000C604503D0002356
:100FC000184670BC70470B1E18BF0123002A0CBFC7
:100FD000002303F00103002BF1D0046890F80AC04D
:100FE000237D43EA0C0C13F0010F80F80AC0E6D011
:100FF00000232578CD540468867A94F814C0013310
:101000004CEA06069A4294BF00250CF00105867250
:10101000002DEED1D4E700BF08B542F21C03C2F2A6
:101020000003984206D041F6F471C2F200018842F2
:1010300000D008BD03681A7A02F00F0CBCF10C0F47
:10104000F7D801A252F82CF09910000033100000DC
:1010500091100000331000008710000033100000D2
:101060007D1000003310000033100000331000002A
:101070003310000033100000871000008369002B3C
:10108000D7D09847D5E7C369002BD2D0984708BD81
:10109000036A002BFAD1CCE7436A002BF6D1C8E7EC
:1010A00042F21C03C2F20003984270B407D041F62A
:1010B000F471C2F20001884201D070BC7047C4686C
:1010C000002CFAD00369002BF7D0016890F80AC011
:1010D0000A7D42EA0C0C12F0200F80F80AC0426927
:1010E0002AD09D1A0F2D2FD91025A4182678012358
:1010F000013205F1FF3CAB420E700CEA030642617F
:1011000019D246B194F801C002230132AB4281F8F2
:1011100000C042610FD214F803C0013281F800C050
:101120000133426114F803C001330132AB4281F84C
:1011300000C04261EFD303699A42BED141680023E7
:101140000361C1F88430B8E7002DCED1F4E700BFC9
:10115000684620F007018D4601B542F21C00C2F23C
:101160000000FFF759FF4EF20013CEF200034FF4D8
:101170008062C3F88021BDE801408546704700BF0A
:10118000684620F007018D4601B541F6F470C2F2C1
:101190000000FFF741FF4EF20013CEF200034FF4C0
:1011A0000062C3F88021BDE801408546704700BF5A
:1011B000F8B504460D46164600F0B4FC42F21C0396
:1011C000C2F200039C4242F20003CEF20403186B09
:1011D00053D040F22802C2F2000240F480704EF276
:1011E00000111768CEF2000118634FF40060C1F8D7
:1011F00080011A6B40F2000140F20000C4F20101CC
:10120000C4F2202022F480724FF00B0C1A6321608C
:101210006060A4F808C000230B716DB1B7FBF5F551
:1012200015F0080F26D12D09B5F5803F04D2AAB2DA
:101230005FFA82FC170A02E04FF0010C002701223E
:1012400041F2A105C0F89C210023C0F200050E2246
:101250000F7181F800C0C0F89C310E730A72C0F89B
:1012600010322562A3722361E3606361E361A361CD
:101270006362F8BD2D090135D6E740F22401C2F2C0
:1012800000014EF200120F6840F08000CEF2000222
:101290004FF480611863C2F88011186B4FF08041E1
:1012A00020F080021A634FF084404FF00A02216060
:1012B00060602281AFE700BF42F2C802C2F20002C2
:1012C0000368904242F20002CEF20402D3F800C05A
:1012D0002DE9F0059F695E689D6A1C6B596BD3F818
:1012E0001C80D2F830A04EF200132DD04AF4806A50
:1012F000C2F830A0CEF200034FF4005AC3F880A128
:10130000D2F830A041F200032AF4806AC2F830A07B
:10131000C4F201031A684FF00D0A22F00042A0F84F
:1013200004A01A6003602CF0010018609F615E60E9
:101330001A6842F0010018609D621C635963C3F88B
:101340001C80BDE8F00570474AF4007AC2F830A06E
:10135000CEF200034FF4805AC3F880A1D2F830A037
:1013600041F200032AF4007AC2F830A0C4F200036C
:101370001A684FF00C0A22F00042A0F804A01A608C
:101380000360D0E7B0F804C02DE9F0010CF01F05B0
:101390000127AF400FFA8CF466094EF2001504687D
:1013A0002036CEF200059DF8148045F82670256899
:1013B00025F001062660256845F0020626602568AE
:1013C000002645F00105072980F8806025601AD8BD
:1013D000B24214BF00240124B2F1007F08BF44F0E0
:1013E000010414B340F2021C0631C2F2004C42EA7E
:1013F0000C0400EBC102546000EBC1014B7281F898
:101400000880B0F804C00CF01F03012212FA03F0A8
:101410000FFA8CF14EF200134FEA511CCEF200038A
:1014200043F82C00BDE8F0017047B2F1807F14BF93
:1014300000240124B2F1407F08BF44F00104002CD5
:10144000D0D140F202140631C2F2000442EA040490
:1014500000EBC1025460CFE7F8B58388012603F0A2
:101460001F0516FA05F50FFA83FC4FEA5C1C4EF2D5
:101470000012CEF200020CF12007036842F8275058
:101480009A68044612F0040F0F460AD0FFF714FFC3
:10149000A188236801F01F0216FA02F508B24FEA8C
:1014A000501C0121B9401868063720F001021A606B
:1014B00004EBC70460684EF200121860607ACEF246
:1014C00000029861207A5860186840F001001860A6
:1014D000D8690143D96142F82C50F8BDF8B583882A
:1014E000012603F01F0516FA05F50FFA83FC4FEAF3
:1014F0005C1C4EF20012CEF200020CF120070368D1
:1015000042F827509A68044612F0040F0F460AD09A
:10151000FFF7D2FEA188236801F01F0216FA02F538
:1015200008B24FEA501C012212FA07F7D9694EF2AD
:10153000001021EA0707CEF20000DF6140F82C50CE
:10154000F8BD00BF036840F2FF021868CFF60072D2
:1015500000EA020C4CF480701860DA6A82B042F043
:101560000C00D8629A6812F0400F07D11A690192F4
:10157000019801909A6812F0400FF7D0596199686C
:1015800011F0010FFBD0986810F0020FFBD0186922
:1015900002B07047026830B49368144613F4807F39
:1015A000036910D1C1688B4231D2856802E0C168FD
:1015B00099422CD9E95C5161036901330361916857
:1015C00011F4807FF3D0C16899421FD9436ADBB11F
:1015D0000169C368994217D38369C169994213D3DA
:1015E000906810F480730FD1194606E0516190683D
:1015F00010F4807F08D1202B06D051619068013310
:10160000013310F4807FF1D030BC704714469368EA
:1016100013F4807FDAD1C36981698B42D6D24569E0
:1016200002E081699942D1D9E95C6161C3691446DC
:101630000133C361916811F4807FF2D0C6E700BF27
:1016400010B590F8803082B0022B044610D0012BE8
:1016500019D003689A6812F0400F05D119690191F9
:101660009A6812F0400FF9D002B010BD0198984767
:101670002268936813F0400FF6D11169636F0191EE
:10168000002BF6D0F2E70268906810F0400FEBD123
:10169000236B1069E16A0190994281BF0199A26AA6
:1016A000D154236B88BF226801332363916811F002
:1016B000400FEED0D8E700BF70B5036882B01A6A59
:1016C000044612F0020F1D460ED090F88020022A28
:1016D0003BD0012A02D198E01A690192996811F071
:1016E000400FF9D00220D8602A6A12F0010F0AD008
:1016F00094F880C0BCF1020F31D02046FFF74AFFBA
:1017000023680120D8602A6A12F0100F5BD1286A82
:1017100010F0040F4CD1286A10F0080F0CD0D86AD2
:1017200094F8802040F00801022AD96260D0012A92
:1017300000F085800821D960286A10F0200F11D1AF
:1017400002B070BD019890472368986810F0400F70
:10175000C8D11969626F0191002AF6D0F2E7A16F32
:101760005961CEE72046FFF76BFF256A266B002DF7
:1017700063D0236800201025E0616062A061DD6015
:10178000996A606141F010029A6200252561D96A68
:10179000204641F00C02DA62FFF7FCFEE36F25639E
:1017A00013B13146A06A984723682020D860C7E764
:1017B000DA6A204642F00401D962FFF77DFD236812
:1017C0000422DA60A7E72046FFF73AFF236A2BB12D
:1017D000A06A216B98472046FFF7DCFE23680121B1
:1017E00061629A6A102122F010009862D9608EE737
:1017F0001A6840F2FF00CFF6007002EA000C4CF4C9
:1018000080711960A26F5A6194E79A6812F0400FD4
:101810007FF468AF026B1869E16A0190914281BF61
:101820000199A36A9954226B88BF2368013222630D
:10183000996811F0400FEED054E72368A5E7002324
:1018400023612046FFF7A6FE236873E7684620F071
:1018500007018D4601B542F2C800C2F20000FFF751
:101860002BFF4EF20013CEF200034FF48052C3F868
:101870008021BDE801408546704700BF684620F0E2
:1018800007018D4601B542F24400C2F20000FFF7A5
:1018900013FF4EF20013CEF200034FF40052C3F8D0
:1018A0008021BDE801408546704700BFB0F804C004
:1018B00070B50CF01F02012616FA02F10FFA8CF532
:1018C0006B094EF200152033CEF2000545F82310C7
:1018D00084220021044600F011FD4FF0FF3342F254
:1018E000C802C2F20002E3666363E3636364E36415
:1018F0006365E365636642F2000366629442CEF27A
:1019000004031A6B18D042F480604FF4005218633D
:10191000C5F88021196B41F2000221F48060C4F205
:101920000102186311684FF00D0E21F00043A4F876
:1019300004E02260136070BD42F400714FF48052E5
:101940001963C5F88021186B41F2000220F4007180
:10195000C4F20002196311684FF00C0021F000433B
:10196000A0802260136070BD42F20003CEF2040337
:10197000186B42F2005C40F480424EF20010F0B46A
:101980001A63C0F2000CCEF20000002301249A1C5E
:101990003CF803103CF8023001F01F0703F01F056C
:1019A00014FA07F714FA05F50EB21BB259097609B5
:1019B000931C60366031402B40F8267040F821506F
:1019C000E5D142F20003CEF204031A6B22F4804008
:1019D0001863F0BC704700BF1F289FBF42F24053FE
:1019E000C0F2000353F82030196070471F289FBFD2
:1019F00040F20003C4F2262300F5886043F820106B
:101A0000704700BF1F2810B41CD842F20051C0F22A
:101A1000000131F810C001240CF01F02944042F282
:101A20004053C0F2000353F820200FFA8CF11068E5
:101A30004EF2001340F008004909CEF20003106096
:101A400043F8214010BC70471F2810B41CD842F244
:101A50000053C0F2000333F810C001220CF01F0441
:101A600012FA04F412FA00F00FFA8CF1490943F269
:101A700000024EF20013C4F20102CEF20003603104
:101A8000C2F8800043F8214010BC704740F2340C8B
:101A9000C2F2000C0CEB0012D18840F20003C4F239
:101AA000020301F5C06253F82200000C10F4004F4D
:101AB00018BF0020704700BF38B540F23404C2F2AE
:101AC00000042168054621B1102200F081FC034684
:101AD000B8B1216921B12846102200F079FC90B1FB
:101AE000216A21B12846102200F072FC68B1216BF6
:101AF00021B12846102200F06BFC08B1042038BD4B
:101B00000323D8B238BD0123FBE70223F9E700BF66
:101B100010B500F0C9F9BDE8104000F0A9B800BF49
:101B2000704700BF2DE9F00742F2C05785B0C0F200
:101B300000076E4697E80F0086E80F0042F20003A8
:101B4000CEF204039D6C996C05F00C0CC1F3011AE4
:101B50000DF1100940F230219A6C0CEB0900DC6C9D
:101B6000C6F2080109EB8A07DD6C50F810AC086872
:101B7000C4F3042C41F2CF13C2F3811815F4005FB3
:101B80000CF1010C20F07042C0F2A15309EB880661
:101B900018BF4FEA4C0C9A4257F8108C56F8107C3C
:101BA0003BD040F61C03C6F208031C6844F24139DE
:101BB000C4F654494C4538D047F64003C0F27D1373
:101BC00040F22C0240F2240640F2280540F21C04A8
:101BD00040F2200040F23001B3FBF7F9C2F20002FC
:101BE000C2F20006B3FBFAFAC2F20005B3FBF8F842
:101BF000C2F20004C2F20000B3FBFCF7C2F2000123
:101C0000C6F800A0C5F80080C4F8009007600B601B
:101C1000136005B0BDE8F00770474EF62C70C6F2B1
:101C200001000368002BCBD1C6E740F64005C6F2A1
:101C300008052A6840F2003122F07F42C0F201011B
:101C40008A42B9D9B2F5003F07D241F22C66C6F2FA
:101C500008063368002BB3D1AEE7B2F5403FABD2F4
:101C600041F6AC60C6F208000368002BA8D1A3E7D8
:101C7000F0B440F20003C4F202030022D3F8C850CB
:101C8000C3F8C82093F8241240F27C02C2F200028A
:101C9000C1F34104147093F8240240F23404C0F3F9
:101CA0004116567093F85472C2F20004C7F3410C07
:101CB00082F802C093F8541294F804C0C1F34110A2
:101CC000D07093F8846242F25060C6F341071771F6
:101CD00093F88412C0F20000C1F34116567193F8D4
:101CE000B47210F80C60C7F34101917193F8B472AB
:101CF00042F22061C7F34117D77193F8E472C0F242
:101D00000001C7F34107177293F8E472012E11F82E
:101D10000C30C7F3411C82F809C000F0B680022ED7
:101D200000F08B800026227D40F2880310F802C06C
:101D3000C2F20003BCF1010F1E708A5C00F09780B4
:101D4000BCF1020F55D04FF0000C94F8242083F81A
:101D500001C010F802C08A5CBCF1010F5FD0BCF179
:101D6000020F23D04FF0000C94F8342083F802C007
:101D7000805C8A5C01282DD0022809D0002040F226
:101D80000001C4F20201D870C1F8C850F0BC70471D
:101D900002EB420240F228211201C4F20201511862
:101DA00091F804C01CF0010FE9D0E7E702EB420212
:101DB00040F228261201C4F202069619327912F076
:101DC000010FCFD194F8342083F802C0805C8A5C84
:101DD0000128D1D102EB420140F22020C4F20200DE
:101DE0000A01111891F808C08CF0010000F0010000
:101DF000C5E702EB420240F228261201C4F20206B5
:101E00009619327912F0010F9DD194F8242083F8AD
:101E100001C010F802C08A5CBCF1010F9FD102EB37
:101E2000420240F220261201C4F202069619327ACA
:101E300082F0010C0CF0010C96E703EB430340F237
:101E400028221B01C4F202029A18137913F0010F21
:101E50007FF468AF227D40F2880310F802C0C2F21E
:101E60000003BCF1010F1E708A5C7FF469AF02EBC6
:101E7000420240F220261201C4F202069619327A7A
:101E800082F0010C0CF0010C5FE703EB430240F21F
:101E90002026C4F2020613019A19167A86F0010C64
:101EA0000CF001063FE700BF704700BF684620F016
:101EB00007014EF200138D46CEF200034FF480026C
:101EC00001B4C3F88C2101BC85467047684620F0F8
:101ED00007014EF200138D46CEF200034FF40002CC
:101EE00001B4C3F88C2101BC85467047684620F0D8
:101EF00007014EF200138D46CEF200034FF08072C0
:101F000001B4C3F88C2101BC85467047684620F0B7
:101F100007014EF200138D46CEF200034FF000721F
:101F200001B4C3F88C2101BC85467047684620F097
:101F300007014EF200138D46CEF200034FF080628F
:101F400001B4C3F88C2101BC85467047684620F077
:101F500007014EF200138D46CEF200034FF00062EF
:101F600001B4C3F88C2101BC85467047684620F057
:101F700007014EF200138D46CEF200034FF080525F
:101F800001B4C3F88C2101BC85467047684620F037
:101F900007014EF200138D46CEF200034FF00052BF
:101FA00001B4C3F88C2101BC85467047684620F017
:101FB00007014EF200138D46CEF200034FF080422F
:101FC00001B4C3F88C2101BC85467047684620F0F7
:101FD00007014EF200138D46CEF200034FF000428F
:101FE00001B4C3F88C2101BC85467047684620F0D7
:101FF00007014EF200138D46CEF20003012201B418
:10200000C3F8902101BC8546704700BF684620F0A8
:1020100007014EF200138D46CEF20003022201B4F6
:10202000C3F8902101BC8546704700BF684620F088
:1020300007014EF200138D46CEF20003042201B4D4
:10204000C3F8902101BC8546704700BF684620F068
:1020500007014EF200138D46CEF20003082201B4B0
:10206000C3F8902101BC8546704700BF684620F048
:1020700007014EF200138D46CEF20003102201B488
:10208000C3F8902101BC8546704700BF684620F028
:1020900007014EF200138D46CEF20003202201B458
:1020A000C3F8902101BC8546704700BF684620F008
:1020B00007014EF200138D46CEF20003402201B418
:1020C000C3F8902101BC8546704700BF684620F0E8
:1020D00007014EF200138D46CEF20003802201B4B8
:1020E000C3F8902101BC8546704700BF684620F0C8
:1020F00007014EF200138D46CEF200034FF48072BA
:1021000001B4C3F8902101BC85467047684620F0B1
:1021100007014EF200138D46CEF200034FF4007219
:1021200001B4C3F8902101BC85467047684620F091
:1021300007014EF200138D46CEF200034FF4806289
:1021400001B4C3F8902101BC85467047684620F071
:1021500007014EF200138D46CEF200034FF40062E9
:1021600001B4C3F8902101BC85467047684620F051
:1021700007014EF200138D46CEF200034FF4805259
:1021800001B4C3F8902101BC85467047684620F031
:1021900007014EF200138D46CEF200034FF40052B9
:1021A00001B4C3F8902101BC85467047684620F011
:1021B00007014EF200138D46CEF200034FF4804229
:1021C00001B4C3F8902101BC85467047684620F0F1
:1021D00007014EF200138D46CEF200034FF4004289
:1021E00001B4C3F8902101BC85467047684620F0D1
:1021F00007014EF200138D46CEF200034FF48032F9
:1022000001B4C3F8902101BC85467047684620F0B0
:1022100007014EF200138D46CEF200034FF4003258
:1022200001B4C3F8902101BC85467047684620F090
:1022300007014EF200138D46CEF200034FF48022C8
:1022400001B4C3F8902101BC85467047684620F070
:1022500007014EF200138D46CEF200034FF4002228
:1022600001B4C3F8902101BC85467047684620F050
:1022700007014EF200138D46CEF200034FF4801298
:1022800001B4C3F8902101BC85467047684620F030
:1022900007014EF200138D46CEF200034FF40012F8
:1022A00001B4C3F8902101BC8546704770B542F275
:1022B000986642F29865C0F20006C0F20005761BEF
:1022C000B61006D0002455F8243001349847A642B1
:1022D000F9D842F2986542F29C66C0F20005C0F25D
:1022E0000006761B00F0CCF9B61006D0002455F895
:1022F000243001349847A642F9D870BD032AC9B2E8
:1023000030B407D822B10023C15401339342FBD12A
:1023100030BC704700EB020C034601E003F8011CDF
:1023200003F003041A460133002CF7D14FF00133B8
:10233000C2EB0C0403FB01F31FE042F8403C42F8FF
:102340003C3C42F8383C42F8343C42F8303C42F8DD
:102350002C3C42F8283C42F8243C42F8203C42F80D
:102360001C3C42F8183C42F8143C42F8103C42F83D
:102370000C3C42F8083C42F8043C154640323F2CE5
:10238000A4F14004D9DC2A46C5EB0C0407E042F86E
:10239000103C42F80C3C42F8083C42F8043C15461C
:1023A00010320F2CA4F11004F1DC2A46C5EB0C0509
:1023B00001E042F8043C14460432032DA5F1040563
:1023C000F7DC01E004F8011B6445FBD3A0E700BF84
:1023D00030B41346002A43D041EA000212F0030F42
:1023E00025D1032B04460D463DD9026809688A426F
:1023F00039D1043B34D0A2F1013121EA020212F0BA
:10240000803F0DD02CE022682968A2F101308A4279
:1024100020EA020027D1043B22D010F0803F1FD1D8
:1024200004340435032BEED820462946F3B1047852
:10243000013B91F800C064450FD18BB184B1013BE1
:10244000002202E063B15CB1013B84188D180132B7
:10245000647895F801C06445F4D0CCEB040000E04A
:10246000002030BC704720462946E0E7247895F8E4
:1024700000C0CCEB0400F4E7800000004200000044
:10248000000000000000000000000000000000004C
:1024900000000000000000000000000080000000BC
:1024A0004200000000000000FF000000FF000000EC
:1024B000414443446972656374496E7075745F3258
:1024C00000000000414443446972656374496E70C2
:1024D00075745F33000000004144434469726563D2
:1024E00074496E7075745F340000000041444344C9
:1024F0006972656374496E7075745F350000000021
:1025000020002100220023002400250026002700AF
:10251000280029002A002B002C002D002E002F005F
:10252000300031003200330034003500360037000F
:10253000380039003A003B003C003D003E003F00BF
:102540000030014004300140083001400C300140AF
:102550001030014014300140183001401C3001405F
:102560002030014024300140283001402C3001400F
:102570003030014034300140383001403C300140BF
:102580004030014044300140483001404C3001406F
:102590005030014054300140583001405C3001401F
:1025A0006030014064300140683001406C300140CF
:1025B0007030014074300140783001407C3001407F
:1025C0000100000002000000040000000100000003
:1025D000414443446972656374496E7075745F3435
:1025E00000000000414443446972656374496E70A1
:1025F00075745F33000000004144434469726563B1
:1026000074496E7075745F320000000041444344A9
:102610006972656374496E7075745F3500000000FF
:10262000FF0000000001010101FFFFFFFFFFFFFFAE
:10263000FF0202020203030303FFFFFFFFFFFFFF8E
:10264000FF04040404FFFFFFFFFFFFFFFFFFFFFF86
:1026500000000001020000010200000000FFFF0076
:1026600000000001020000010200000000FFFF0066
:102670000000000102FFFFFFFF00000000FFFF005D
:10268000F8B500BFF8BC08BC9E467047F8B500BF5F
:10269000F8BC08BC9E467047850400007104000029
:1026A0000000000000000540000605400004054051
:1026B000000505400007054000010540105E5F0071
:1026C000105E5F00105E5F00105E5F0040787D016D
:1026D00040787D01F82500000B001000000000008C
:1026E00000000000E42500000C00190000000000BC
:1026F00000000000D02500001900220000000000AA
:10270000000000000C2600001A002B000000000052
:0427100000000000C5
:04000003000002995E
:00000001FF
